{
	"mapping.sol": {
		"Mapping": {
			"abi": [
				{
					"inputs": [],
					"stateMutability": "nonpayable",
					"type": "constructor"
				},
				{
					"inputs": [
						{
							"internalType": "uint256",
							"name": "_id",
							"type": "uint256"
						},
						{
							"internalType": "string",
							"name": "_title",
							"type": "string"
						},
						{
							"internalType": "string",
							"name": "_author",
							"type": "string"
						}
					],
					"name": "addBook",
					"outputs": [],
					"stateMutability": "nonpayable",
					"type": "function"
				},
				{
					"inputs": [
						{
							"internalType": "uint256",
							"name": "_id",
							"type": "uint256"
						},
						{
							"internalType": "string",
							"name": "_title",
							"type": "string"
						},
						{
							"internalType": "string",
							"name": "_author",
							"type": "string"
						}
					],
					"name": "addMyBook",
					"outputs": [],
					"stateMutability": "nonpayable",
					"type": "function"
				},
				{
					"inputs": [
						{
							"internalType": "uint256",
							"name": "",
							"type": "uint256"
						}
					],
					"name": "books",
					"outputs": [
						{
							"internalType": "string",
							"name": "title",
							"type": "string"
						},
						{
							"internalType": "string",
							"name": "author",
							"type": "string"
						}
					],
					"stateMutability": "view",
					"type": "function"
				},
				{
					"inputs": [
						{
							"internalType": "address",
							"name": "",
							"type": "address"
						},
						{
							"internalType": "uint256",
							"name": "",
							"type": "uint256"
						}
					],
					"name": "myBooks",
					"outputs": [
						{
							"internalType": "string",
							"name": "title",
							"type": "string"
						},
						{
							"internalType": "string",
							"name": "author",
							"type": "string"
						}
					],
					"stateMutability": "view",
					"type": "function"
				},
				{
					"inputs": [
						{
							"internalType": "uint256",
							"name": "",
							"type": "uint256"
						}
					],
					"name": "names",
					"outputs": [
						{
							"internalType": "string",
							"name": "",
							"type": "string"
						}
					],
					"stateMutability": "view",
					"type": "function"
				}
			],
			"devdoc": {
				"kind": "dev",
				"methods": {},
				"version": 1
			},
			"evm": {
				"assembly": "    /* \"mapping.sol\":57:769  contract Mapping {... */\n  mstore(0x40, 0x80)\n    /* \"mapping.sol\":294:403  constructor() public {... */\n  callvalue\n  dup1\n  iszero\n  tag_1\n  jumpi\n  0x00\n  dup1\n  revert\ntag_1:\n  pop\n    /* \"mapping.sol\":325:341  names[1] = \"Bob\" */\n  mload(0x40)\n  dup1\n  0x40\n  add\n  0x40\n  mstore\n  dup1\n  0x03\n  dup2\n  mstore\n  0x20\n  add\n  0x426f620000000000000000000000000000000000000000000000000000000000\n  dup2\n  mstore\n  pop\n    /* \"mapping.sol\":325:330  names */\n  0x00\n    /* \"mapping.sol\":325:333  names[1] */\n  dup1\n    /* \"mapping.sol\":331:332  1 */\n  0x01\n    /* \"mapping.sol\":325:333  names[1] */\n  dup2\n  mstore\n  0x20\n  add\n  swap1\n  dup2\n  mstore\n  0x20\n  add\n  0x00\n  keccak256\n    /* \"mapping.sol\":325:341  names[1] = \"Bob\" */\n  swap1\n  dup1\n  mload\n  swap1\n  0x20\n  add\n  swap1\n  tag_4\n  swap3\n  swap2\n  swap1\n  tag_5\n  jump\t// in\ntag_4:\n  pop\n    /* \"mapping.sol\":351:369  names[2] = \"Alice\" */\n  mload(0x40)\n  dup1\n  0x40\n  add\n  0x40\n  mstore\n  dup1\n  0x05\n  dup2\n  mstore\n  0x20\n  add\n  0x416c696365000000000000000000000000000000000000000000000000000000\n  dup2\n  mstore\n  pop\n    /* \"mapping.sol\":351:356  names */\n  0x00\n    /* \"mapping.sol\":351:359  names[2] */\n  dup1\n    /* \"mapping.sol\":357:358  2 */\n  0x02\n    /* \"mapping.sol\":351:359  names[2] */\n  dup2\n  mstore\n  0x20\n  add\n  swap1\n  dup2\n  mstore\n  0x20\n  add\n  0x00\n  keccak256\n    /* \"mapping.sol\":351:369  names[2] = \"Alice\" */\n  swap1\n  dup1\n  mload\n  swap1\n  0x20\n  add\n  swap1\n  tag_6\n  swap3\n  swap2\n  swap1\n  tag_5\n  jump\t// in\ntag_6:\n  pop\n    /* \"mapping.sol\":379:396  names[3] = \"Carl\" */\n  mload(0x40)\n  dup1\n  0x40\n  add\n  0x40\n  mstore\n  dup1\n  0x04\n  dup2\n  mstore\n  0x20\n  add\n  0x4361726c00000000000000000000000000000000000000000000000000000000\n  dup2\n  mstore\n  pop\n    /* \"mapping.sol\":379:384  names */\n  0x00\n    /* \"mapping.sol\":379:387  names[3] */\n  dup1\n    /* \"mapping.sol\":385:386  3 */\n  0x03\n    /* \"mapping.sol\":379:387  names[3] */\n  dup2\n  mstore\n  0x20\n  add\n  swap1\n  dup2\n  mstore\n  0x20\n  add\n  0x00\n  keccak256\n    /* \"mapping.sol\":379:396  names[3] = \"Carl\" */\n  swap1\n  dup1\n  mload\n  swap1\n  0x20\n  add\n  swap1\n  tag_7\n  swap3\n  swap2\n  swap1\n  tag_5\n  jump\t// in\ntag_7:\n  pop\n    /* \"mapping.sol\":57:769  contract Mapping {... */\n  jump(tag_8)\ntag_5:\n  dup3\n  dup1\n  sload\n  tag_9\n  swap1\n  tag_10\n  jump\t// in\ntag_9:\n  swap1\n  0x00\n  mstore\n  keccak256(0x00, 0x20)\n  swap1\n  0x1f\n  add\n  0x20\n  swap1\n  div\n  dup2\n  add\n  swap3\n  dup3\n  tag_12\n  jumpi\n  0x00\n  dup6\n  sstore\n  jump(tag_11)\ntag_12:\n  dup3\n  0x1f\n  lt\n  tag_13\n  jumpi\n  dup1\n  mload\n  not(0xff)\n  and\n  dup4\n  dup1\n  add\n  or\n  dup6\n  sstore\n  jump(tag_11)\ntag_13:\n  dup3\n  dup1\n  add\n  0x01\n  add\n  dup6\n  sstore\n  dup3\n  iszero\n  tag_11\n  jumpi\n  swap2\n  dup3\n  add\ntag_14:\n  dup3\n  dup2\n  gt\n  iszero\n  tag_15\n  jumpi\n  dup3\n  mload\n  dup3\n  sstore\n  swap2\n  0x20\n  add\n  swap2\n  swap1\n  0x01\n  add\n  swap1\n  jump(tag_14)\ntag_15:\ntag_11:\n  pop\n  swap1\n  pop\n  tag_16\n  swap2\n  swap1\n  tag_17\n  jump\t// in\ntag_16:\n  pop\n  swap1\n  jump\t// out\ntag_17:\ntag_18:\n  dup1\n  dup3\n  gt\n  iszero\n  tag_19\n  jumpi\n  0x00\n  dup2\n  0x00\n  swap1\n  sstore\n  pop\n  0x01\n  add\n  jump(tag_18)\ntag_19:\n  pop\n  swap1\n  jump\t// out\n    /* \"#utility.yul\":7:187   */\ntag_20:\n    /* \"#utility.yul\":55:132   */\n  0x4e487b7100000000000000000000000000000000000000000000000000000000\n    /* \"#utility.yul\":52:53   */\n  0x00\n    /* \"#utility.yul\":45:133   */\n  mstore\n    /* \"#utility.yul\":152:156   */\n  0x22\n    /* \"#utility.yul\":149:150   */\n  0x04\n    /* \"#utility.yul\":142:157   */\n  mstore\n    /* \"#utility.yul\":176:180   */\n  0x24\n    /* \"#utility.yul\":173:174   */\n  0x00\n    /* \"#utility.yul\":166:181   */\n  revert\n    /* \"#utility.yul\":193:513   */\ntag_10:\n    /* \"#utility.yul\":237:243   */\n  0x00\n    /* \"#utility.yul\":274:275   */\n  0x02\n    /* \"#utility.yul\":268:272   */\n  dup3\n    /* \"#utility.yul\":264:276   */\n  div\n    /* \"#utility.yul\":254:276   */\n  swap1\n  pop\n    /* \"#utility.yul\":321:322   */\n  0x01\n    /* \"#utility.yul\":315:319   */\n  dup3\n    /* \"#utility.yul\":311:323   */\n  and\n    /* \"#utility.yul\":342:360   */\n  dup1\n    /* \"#utility.yul\":332:413   */\n  tag_24\n  jumpi\n    /* \"#utility.yul\":398:402   */\n  0x7f\n    /* \"#utility.yul\":390:396   */\n  dup3\n    /* \"#utility.yul\":386:403   */\n  and\n    /* \"#utility.yul\":376:403   */\n  swap2\n  pop\n    /* \"#utility.yul\":332:413   */\ntag_24:\n    /* \"#utility.yul\":460:462   */\n  0x20\n    /* \"#utility.yul\":452:458   */\n  dup3\n    /* \"#utility.yul\":449:463   */\n  lt\n    /* \"#utility.yul\":429:447   */\n  dup2\n    /* \"#utility.yul\":426:464   */\n  eq\n    /* \"#utility.yul\":423:507   */\n  iszero\n  tag_25\n  jumpi\n    /* \"#utility.yul\":479:497   */\n  tag_26\n  tag_20\n  jump\t// in\ntag_26:\n    /* \"#utility.yul\":423:507   */\ntag_25:\n    /* \"#utility.yul\":244:513   */\n  pop\n    /* \"#utility.yul\":193:513   */\n  swap2\n  swap1\n  pop\n  jump\t// out\n    /* \"mapping.sol\":57:769  contract Mapping {... */\ntag_8:\n  dataSize(sub_0)\n  dup1\n  dataOffset(sub_0)\n  0x00\n  codecopy\n  0x00\n  return\nstop\n\nsub_0: assembly {\n        /* \"mapping.sol\":57:769  contract Mapping {... */\n      mstore(0x40, 0x80)\n      callvalue\n      dup1\n      iszero\n      tag_1\n      jumpi\n      0x00\n      dup1\n      revert\n    tag_1:\n      pop\n      jumpi(tag_2, lt(calldatasize, 0x04))\n      shr(0xe0, calldataload(0x00))\n      dup1\n      0x028414f2\n      eq\n      tag_3\n      jumpi\n      dup1\n      0x27d3553f\n      eq\n      tag_4\n      jumpi\n      dup1\n      0x4622ab03\n      eq\n      tag_5\n      jumpi\n      dup1\n      0x493ec707\n      eq\n      tag_6\n      jumpi\n      dup1\n      0x68744046\n      eq\n      tag_7\n      jumpi\n    tag_2:\n      0x00\n      dup1\n      revert\n        /* \"mapping.sol\":409:576  function addBook(... */\n    tag_3:\n      tag_8\n      0x04\n      dup1\n      calldatasize\n      sub\n      dup2\n      add\n      swap1\n      tag_9\n      swap2\n      swap1\n      tag_10\n      jump\t// in\n    tag_9:\n      tag_11\n      jump\t// in\n    tag_8:\n      stop\n        /* \"mapping.sol\":162:218  mapping(address => mapping(uint => Book)) public myBooks */\n    tag_4:\n      tag_12\n      0x04\n      dup1\n      calldatasize\n      sub\n      dup2\n      add\n      swap1\n      tag_13\n      swap2\n      swap1\n      tag_14\n      jump\t// in\n    tag_13:\n      tag_15\n      jump\t// in\n    tag_12:\n      mload(0x40)\n      tag_16\n      swap3\n      swap2\n      swap1\n      tag_17\n      jump\t// in\n    tag_16:\n      mload(0x40)\n      dup1\n      swap2\n      sub\n      swap1\n      return\n        /* \"mapping.sol\":80:116  mapping(uint => string) public names */\n    tag_5:\n      tag_18\n      0x04\n      dup1\n      calldatasize\n      sub\n      dup2\n      add\n      swap1\n      tag_19\n      swap2\n      swap1\n      tag_20\n      jump\t// in\n    tag_19:\n      tag_21\n      jump\t// in\n    tag_18:\n      mload(0x40)\n      tag_22\n      swap2\n      swap1\n      tag_23\n      jump\t// in\n    tag_22:\n      mload(0x40)\n      dup1\n      swap2\n      sub\n      swap1\n      return\n        /* \"mapping.sol\":582:765  function addMyBook(... */\n    tag_6:\n      tag_24\n      0x04\n      dup1\n      calldatasize\n      sub\n      dup2\n      add\n      swap1\n      tag_25\n      swap2\n      swap1\n      tag_10\n      jump\t// in\n    tag_25:\n      tag_26\n      jump\t// in\n    tag_24:\n      stop\n        /* \"mapping.sol\":122:156  mapping(uint => Book) public books */\n    tag_7:\n      tag_27\n      0x04\n      dup1\n      calldatasize\n      sub\n      dup2\n      add\n      swap1\n      tag_28\n      swap2\n      swap1\n      tag_20\n      jump\t// in\n    tag_28:\n      tag_29\n      jump\t// in\n    tag_27:\n      mload(0x40)\n      tag_30\n      swap3\n      swap2\n      swap1\n      tag_17\n      jump\t// in\n    tag_30:\n      mload(0x40)\n      dup1\n      swap2\n      sub\n      swap1\n      return\n        /* \"mapping.sol\":409:576  function addBook(... */\n    tag_11:\n        /* \"mapping.sol\":546:567  Book(_title, _author) */\n      mload(0x40)\n      dup1\n      0x40\n      add\n      0x40\n      mstore\n      dup1\n        /* \"mapping.sol\":551:557  _title */\n      dup4\n        /* \"mapping.sol\":546:567  Book(_title, _author) */\n      dup2\n      mstore\n      0x20\n      add\n        /* \"mapping.sol\":559:566  _author */\n      dup3\n        /* \"mapping.sol\":546:567  Book(_title, _author) */\n      dup2\n      mstore\n      pop\n        /* \"mapping.sol\":533:538  books */\n      0x01\n        /* \"mapping.sol\":533:543  books[_id] */\n      0x00\n        /* \"mapping.sol\":539:542  _id */\n      dup6\n        /* \"mapping.sol\":533:543  books[_id] */\n      dup2\n      mstore\n      0x20\n      add\n      swap1\n      dup2\n      mstore\n      0x20\n      add\n      0x00\n      keccak256\n        /* \"mapping.sol\":533:567  books[_id] = Book(_title, _author) */\n      0x00\n      dup3\n      add\n      mload\n      dup2\n      0x00\n      add\n      swap1\n      dup1\n      mload\n      swap1\n      0x20\n      add\n      swap1\n      tag_32\n      swap3\n      swap2\n      swap1\n      tag_33\n      jump\t// in\n    tag_32:\n      pop\n      0x20\n      dup3\n      add\n      mload\n      dup2\n      0x01\n      add\n      swap1\n      dup1\n      mload\n      swap1\n      0x20\n      add\n      swap1\n      tag_34\n      swap3\n      swap2\n      swap1\n      tag_33\n      jump\t// in\n    tag_34:\n      pop\n      swap1\n      pop\n      pop\n        /* \"mapping.sol\":409:576  function addBook(... */\n      pop\n      pop\n      pop\n      jump\t// out\n        /* \"mapping.sol\":162:218  mapping(address => mapping(uint => Book)) public myBooks */\n    tag_15:\n      mstore(0x20, 0x02)\n      dup2\n      0x00\n      mstore\n      mstore(0x20, keccak256(0x00, 0x40))\n      dup1\n      0x00\n      mstore\n      keccak256(0x00, 0x40)\n      0x00\n      swap2\n      pop\n      swap2\n      pop\n      pop\n      dup1\n      0x00\n      add\n      dup1\n      sload\n      tag_35\n      swap1\n      tag_36\n      jump\t// in\n    tag_35:\n      dup1\n      0x1f\n      add\n      0x20\n      dup1\n      swap2\n      div\n      mul\n      0x20\n      add\n      mload(0x40)\n      swap1\n      dup2\n      add\n      0x40\n      mstore\n      dup1\n      swap3\n      swap2\n      swap1\n      dup2\n      dup2\n      mstore\n      0x20\n      add\n      dup3\n      dup1\n      sload\n      tag_37\n      swap1\n      tag_36\n      jump\t// in\n    tag_37:\n      dup1\n      iszero\n      tag_38\n      jumpi\n      dup1\n      0x1f\n      lt\n      tag_39\n      jumpi\n      0x0100\n      dup1\n      dup4\n      sload\n      div\n      mul\n      dup4\n      mstore\n      swap2\n      0x20\n      add\n      swap2\n      jump(tag_38)\n    tag_39:\n      dup3\n      add\n      swap2\n      swap1\n      0x00\n      mstore\n      keccak256(0x00, 0x20)\n      swap1\n    tag_40:\n      dup2\n      sload\n      dup2\n      mstore\n      swap1\n      0x01\n      add\n      swap1\n      0x20\n      add\n      dup1\n      dup4\n      gt\n      tag_40\n      jumpi\n      dup3\n      swap1\n      sub\n      0x1f\n      and\n      dup3\n      add\n      swap2\n    tag_38:\n      pop\n      pop\n      pop\n      pop\n      pop\n      swap1\n      dup1\n      0x01\n      add\n      dup1\n      sload\n      tag_41\n      swap1\n      tag_36\n      jump\t// in\n    tag_41:\n      dup1\n      0x1f\n      add\n      0x20\n      dup1\n      swap2\n      div\n      mul\n      0x20\n      add\n      mload(0x40)\n      swap1\n      dup2\n      add\n      0x40\n      mstore\n      dup1\n      swap3\n      swap2\n      swap1\n      dup2\n      dup2\n      mstore\n      0x20\n      add\n      dup3\n      dup1\n      sload\n      tag_42\n      swap1\n      tag_36\n      jump\t// in\n    tag_42:\n      dup1\n      iszero\n      tag_43\n      jumpi\n      dup1\n      0x1f\n      lt\n      tag_44\n      jumpi\n      0x0100\n      dup1\n      dup4\n      sload\n      div\n      mul\n      dup4\n      mstore\n      swap2\n      0x20\n      add\n      swap2\n      jump(tag_43)\n    tag_44:\n      dup3\n      add\n      swap2\n      swap1\n      0x00\n      mstore\n      keccak256(0x00, 0x20)\n      swap1\n    tag_45:\n      dup2\n      sload\n      dup2\n      mstore\n      swap1\n      0x01\n      add\n      swap1\n      0x20\n      add\n      dup1\n      dup4\n      gt\n      tag_45\n      jumpi\n      dup3\n      swap1\n      sub\n      0x1f\n      and\n      dup3\n      add\n      swap2\n    tag_43:\n      pop\n      pop\n      pop\n      pop\n      pop\n      swap1\n      pop\n      dup3\n      jump\t// out\n        /* \"mapping.sol\":80:116  mapping(uint => string) public names */\n    tag_21:\n      mstore(0x20, 0x00)\n      dup1\n      0x00\n      mstore\n      keccak256(0x00, 0x40)\n      0x00\n      swap2\n      pop\n      swap1\n      pop\n      dup1\n      sload\n      tag_46\n      swap1\n      tag_36\n      jump\t// in\n    tag_46:\n      dup1\n      0x1f\n      add\n      0x20\n      dup1\n      swap2\n      div\n      mul\n      0x20\n      add\n      mload(0x40)\n      swap1\n      dup2\n      add\n      0x40\n      mstore\n      dup1\n      swap3\n      swap2\n      swap1\n      dup2\n      dup2\n      mstore\n      0x20\n      add\n      dup3\n      dup1\n      sload\n      tag_47\n      swap1\n      tag_36\n      jump\t// in\n    tag_47:\n      dup1\n      iszero\n      tag_48\n      jumpi\n      dup1\n      0x1f\n      lt\n      tag_49\n      jumpi\n      0x0100\n      dup1\n      dup4\n      sload\n      div\n      mul\n      dup4\n      mstore\n      swap2\n      0x20\n      add\n      swap2\n      jump(tag_48)\n    tag_49:\n      dup3\n      add\n      swap2\n      swap1\n      0x00\n      mstore\n      keccak256(0x00, 0x20)\n      swap1\n    tag_50:\n      dup2\n      sload\n      dup2\n      mstore\n      swap1\n      0x01\n      add\n      swap1\n      0x20\n      add\n      dup1\n      dup4\n      gt\n      tag_50\n      jumpi\n      dup3\n      swap1\n      sub\n      0x1f\n      and\n      dup3\n      add\n      swap2\n    tag_48:\n      pop\n      pop\n      pop\n      pop\n      pop\n      dup2\n      jump\t// out\n        /* \"mapping.sol\":582:765  function addMyBook(... */\n    tag_26:\n        /* \"mapping.sol\":735:756  Book(_title, _author) */\n      mload(0x40)\n      dup1\n      0x40\n      add\n      0x40\n      mstore\n      dup1\n        /* \"mapping.sol\":740:746  _title */\n      dup4\n        /* \"mapping.sol\":735:756  Book(_title, _author) */\n      dup2\n      mstore\n      0x20\n      add\n        /* \"mapping.sol\":748:755  _author */\n      dup3\n        /* \"mapping.sol\":735:756  Book(_title, _author) */\n      dup2\n      mstore\n      pop\n        /* \"mapping.sol\":708:715  myBooks */\n      0x02\n        /* \"mapping.sol\":708:727  myBooks[msg.sender] */\n      0x00\n        /* \"mapping.sol\":716:726  msg.sender */\n      caller\n        /* \"mapping.sol\":708:727  myBooks[msg.sender] */\n      0xffffffffffffffffffffffffffffffffffffffff\n      and\n      0xffffffffffffffffffffffffffffffffffffffff\n      and\n      dup2\n      mstore\n      0x20\n      add\n      swap1\n      dup2\n      mstore\n      0x20\n      add\n      0x00\n      keccak256\n        /* \"mapping.sol\":708:732  myBooks[msg.sender][_id] */\n      0x00\n        /* \"mapping.sol\":728:731  _id */\n      dup6\n        /* \"mapping.sol\":708:732  myBooks[msg.sender][_id] */\n      dup2\n      mstore\n      0x20\n      add\n      swap1\n      dup2\n      mstore\n      0x20\n      add\n      0x00\n      keccak256\n        /* \"mapping.sol\":708:756  myBooks[msg.sender][_id] = Book(_title, _author) */\n      0x00\n      dup3\n      add\n      mload\n      dup2\n      0x00\n      add\n      swap1\n      dup1\n      mload\n      swap1\n      0x20\n      add\n      swap1\n      tag_52\n      swap3\n      swap2\n      swap1\n      tag_33\n      jump\t// in\n    tag_52:\n      pop\n      0x20\n      dup3\n      add\n      mload\n      dup2\n      0x01\n      add\n      swap1\n      dup1\n      mload\n      swap1\n      0x20\n      add\n      swap1\n      tag_53\n      swap3\n      swap2\n      swap1\n      tag_33\n      jump\t// in\n    tag_53:\n      pop\n      swap1\n      pop\n      pop\n        /* \"mapping.sol\":582:765  function addMyBook(... */\n      pop\n      pop\n      pop\n      jump\t// out\n        /* \"mapping.sol\":122:156  mapping(uint => Book) public books */\n    tag_29:\n      mstore(0x20, 0x01)\n      dup1\n      0x00\n      mstore\n      keccak256(0x00, 0x40)\n      0x00\n      swap2\n      pop\n      swap1\n      pop\n      dup1\n      0x00\n      add\n      dup1\n      sload\n      tag_54\n      swap1\n      tag_36\n      jump\t// in\n    tag_54:\n      dup1\n      0x1f\n      add\n      0x20\n      dup1\n      swap2\n      div\n      mul\n      0x20\n      add\n      mload(0x40)\n      swap1\n      dup2\n      add\n      0x40\n      mstore\n      dup1\n      swap3\n      swap2\n      swap1\n      dup2\n      dup2\n      mstore\n      0x20\n      add\n      dup3\n      dup1\n      sload\n      tag_55\n      swap1\n      tag_36\n      jump\t// in\n    tag_55:\n      dup1\n      iszero\n      tag_56\n      jumpi\n      dup1\n      0x1f\n      lt\n      tag_57\n      jumpi\n      0x0100\n      dup1\n      dup4\n      sload\n      div\n      mul\n      dup4\n      mstore\n      swap2\n      0x20\n      add\n      swap2\n      jump(tag_56)\n    tag_57:\n      dup3\n      add\n      swap2\n      swap1\n      0x00\n      mstore\n      keccak256(0x00, 0x20)\n      swap1\n    tag_58:\n      dup2\n      sload\n      dup2\n      mstore\n      swap1\n      0x01\n      add\n      swap1\n      0x20\n      add\n      dup1\n      dup4\n      gt\n      tag_58\n      jumpi\n      dup3\n      swap1\n      sub\n      0x1f\n      and\n      dup3\n      add\n      swap2\n    tag_56:\n      pop\n      pop\n      pop\n      pop\n      pop\n      swap1\n      dup1\n      0x01\n      add\n      dup1\n      sload\n      tag_59\n      swap1\n      tag_36\n      jump\t// in\n    tag_59:\n      dup1\n      0x1f\n      add\n      0x20\n      dup1\n      swap2\n      div\n      mul\n      0x20\n      add\n      mload(0x40)\n      swap1\n      dup2\n      add\n      0x40\n      mstore\n      dup1\n      swap3\n      swap2\n      swap1\n      dup2\n      dup2\n      mstore\n      0x20\n      add\n      dup3\n      dup1\n      sload\n      tag_60\n      swap1\n      tag_36\n      jump\t// in\n    tag_60:\n      dup1\n      iszero\n      tag_61\n      jumpi\n      dup1\n      0x1f\n      lt\n      tag_62\n      jumpi\n      0x0100\n      dup1\n      dup4\n      sload\n      div\n      mul\n      dup4\n      mstore\n      swap2\n      0x20\n      add\n      swap2\n      jump(tag_61)\n    tag_62:\n      dup3\n      add\n      swap2\n      swap1\n      0x00\n      mstore\n      keccak256(0x00, 0x20)\n      swap1\n    tag_63:\n      dup2\n      sload\n      dup2\n      mstore\n      swap1\n      0x01\n      add\n      swap1\n      0x20\n      add\n      dup1\n      dup4\n      gt\n      tag_63\n      jumpi\n      dup3\n      swap1\n      sub\n      0x1f\n      and\n      dup3\n      add\n      swap2\n    tag_61:\n      pop\n      pop\n      pop\n      pop\n      pop\n      swap1\n      pop\n      dup3\n      jump\t// out\n    tag_33:\n      dup3\n      dup1\n      sload\n      tag_64\n      swap1\n      tag_36\n      jump\t// in\n    tag_64:\n      swap1\n      0x00\n      mstore\n      keccak256(0x00, 0x20)\n      swap1\n      0x1f\n      add\n      0x20\n      swap1\n      div\n      dup2\n      add\n      swap3\n      dup3\n      tag_66\n      jumpi\n      0x00\n      dup6\n      sstore\n      jump(tag_65)\n    tag_66:\n      dup3\n      0x1f\n      lt\n      tag_67\n      jumpi\n      dup1\n      mload\n      not(0xff)\n      and\n      dup4\n      dup1\n      add\n      or\n      dup6\n      sstore\n      jump(tag_65)\n    tag_67:\n      dup3\n      dup1\n      add\n      0x01\n      add\n      dup6\n      sstore\n      dup3\n      iszero\n      tag_65\n      jumpi\n      swap2\n      dup3\n      add\n    tag_68:\n      dup3\n      dup2\n      gt\n      iszero\n      tag_69\n      jumpi\n      dup3\n      mload\n      dup3\n      sstore\n      swap2\n      0x20\n      add\n      swap2\n      swap1\n      0x01\n      add\n      swap1\n      jump(tag_68)\n    tag_69:\n    tag_65:\n      pop\n      swap1\n      pop\n      tag_70\n      swap2\n      swap1\n      tag_71\n      jump\t// in\n    tag_70:\n      pop\n      swap1\n      jump\t// out\n    tag_71:\n    tag_72:\n      dup1\n      dup3\n      gt\n      iszero\n      tag_73\n      jumpi\n      0x00\n      dup2\n      0x00\n      swap1\n      sstore\n      pop\n      0x01\n      add\n      jump(tag_72)\n    tag_73:\n      pop\n      swap1\n      jump\t// out\n        /* \"#utility.yul\":7:82   */\n    tag_74:\n        /* \"#utility.yul\":40:46   */\n      0x00\n        /* \"#utility.yul\":73:75   */\n      0x40\n        /* \"#utility.yul\":67:76   */\n      mload\n        /* \"#utility.yul\":57:76   */\n      swap1\n      pop\n        /* \"#utility.yul\":7:82   */\n      swap1\n      jump\t// out\n        /* \"#utility.yul\":88:205   */\n    tag_75:\n        /* \"#utility.yul\":197:198   */\n      0x00\n        /* \"#utility.yul\":194:195   */\n      dup1\n        /* \"#utility.yul\":187:199   */\n      revert\n        /* \"#utility.yul\":211:328   */\n    tag_76:\n        /* \"#utility.yul\":320:321   */\n      0x00\n        /* \"#utility.yul\":317:318   */\n      dup1\n        /* \"#utility.yul\":310:322   */\n      revert\n        /* \"#utility.yul\":334:411   */\n    tag_77:\n        /* \"#utility.yul\":371:378   */\n      0x00\n        /* \"#utility.yul\":400:405   */\n      dup2\n        /* \"#utility.yul\":389:405   */\n      swap1\n      pop\n        /* \"#utility.yul\":334:411   */\n      swap2\n      swap1\n      pop\n      jump\t// out\n        /* \"#utility.yul\":417:539   */\n    tag_78:\n        /* \"#utility.yul\":490:514   */\n      tag_105\n        /* \"#utility.yul\":508:513   */\n      dup2\n        /* \"#utility.yul\":490:514   */\n      tag_77\n      jump\t// in\n    tag_105:\n        /* \"#utility.yul\":483:488   */\n      dup2\n        /* \"#utility.yul\":480:515   */\n      eq\n        /* \"#utility.yul\":470:533   */\n      tag_106\n      jumpi\n        /* \"#utility.yul\":529:530   */\n      0x00\n        /* \"#utility.yul\":526:527   */\n      dup1\n        /* \"#utility.yul\":519:531   */\n      revert\n        /* \"#utility.yul\":470:533   */\n    tag_106:\n        /* \"#utility.yul\":417:539   */\n      pop\n      jump\t// out\n        /* \"#utility.yul\":545:684   */\n    tag_79:\n        /* \"#utility.yul\":591:596   */\n      0x00\n        /* \"#utility.yul\":629:635   */\n      dup2\n        /* \"#utility.yul\":616:636   */\n      calldataload\n        /* \"#utility.yul\":607:636   */\n      swap1\n      pop\n        /* \"#utility.yul\":645:678   */\n      tag_108\n        /* \"#utility.yul\":672:677   */\n      dup2\n        /* \"#utility.yul\":645:678   */\n      tag_78\n      jump\t// in\n    tag_108:\n        /* \"#utility.yul\":545:684   */\n      swap3\n      swap2\n      pop\n      pop\n      jump\t// out\n        /* \"#utility.yul\":690:807   */\n    tag_80:\n        /* \"#utility.yul\":799:800   */\n      0x00\n        /* \"#utility.yul\":796:797   */\n      dup1\n        /* \"#utility.yul\":789:801   */\n      revert\n        /* \"#utility.yul\":813:930   */\n    tag_81:\n        /* \"#utility.yul\":922:923   */\n      0x00\n        /* \"#utility.yul\":919:920   */\n      dup1\n        /* \"#utility.yul\":912:924   */\n      revert\n        /* \"#utility.yul\":936:1038   */\n    tag_82:\n        /* \"#utility.yul\":977:983   */\n      0x00\n        /* \"#utility.yul\":1028:1030   */\n      0x1f\n        /* \"#utility.yul\":1024:1031   */\n      not\n        /* \"#utility.yul\":1019:1021   */\n      0x1f\n        /* \"#utility.yul\":1012:1017   */\n      dup4\n        /* \"#utility.yul\":1008:1022   */\n      add\n        /* \"#utility.yul\":1004:1032   */\n      and\n        /* \"#utility.yul\":994:1032   */\n      swap1\n      pop\n        /* \"#utility.yul\":936:1038   */\n      swap2\n      swap1\n      pop\n      jump\t// out\n        /* \"#utility.yul\":1044:1224   */\n    tag_83:\n        /* \"#utility.yul\":1092:1169   */\n      0x4e487b7100000000000000000000000000000000000000000000000000000000\n        /* \"#utility.yul\":1089:1090   */\n      0x00\n        /* \"#utility.yul\":1082:1170   */\n      mstore\n        /* \"#utility.yul\":1189:1193   */\n      0x41\n        /* \"#utility.yul\":1186:1187   */\n      0x04\n        /* \"#utility.yul\":1179:1194   */\n      mstore\n        /* \"#utility.yul\":1213:1217   */\n      0x24\n        /* \"#utility.yul\":1210:1211   */\n      0x00\n        /* \"#utility.yul\":1203:1218   */\n      revert\n        /* \"#utility.yul\":1230:1511   */\n    tag_84:\n        /* \"#utility.yul\":1313:1340   */\n      tag_114\n        /* \"#utility.yul\":1335:1339   */\n      dup3\n        /* \"#utility.yul\":1313:1340   */\n      tag_82\n      jump\t// in\n    tag_114:\n        /* \"#utility.yul\":1305:1311   */\n      dup2\n        /* \"#utility.yul\":1301:1341   */\n      add\n        /* \"#utility.yul\":1443:1449   */\n      dup2\n        /* \"#utility.yul\":1431:1441   */\n      dup2\n        /* \"#utility.yul\":1428:1450   */\n      lt\n        /* \"#utility.yul\":1407:1425   */\n      0xffffffffffffffff\n        /* \"#utility.yul\":1395:1405   */\n      dup3\n        /* \"#utility.yul\":1392:1426   */\n      gt\n        /* \"#utility.yul\":1389:1451   */\n      or\n        /* \"#utility.yul\":1386:1474   */\n      iszero\n      tag_115\n      jumpi\n        /* \"#utility.yul\":1454:1472   */\n      tag_116\n      tag_83\n      jump\t// in\n    tag_116:\n        /* \"#utility.yul\":1386:1474   */\n    tag_115:\n        /* \"#utility.yul\":1494:1504   */\n      dup1\n        /* \"#utility.yul\":1490:1492   */\n      0x40\n        /* \"#utility.yul\":1483:1505   */\n      mstore\n        /* \"#utility.yul\":1273:1511   */\n      pop\n        /* \"#utility.yul\":1230:1511   */\n      pop\n      pop\n      jump\t// out\n        /* \"#utility.yul\":1517:1646   */\n    tag_85:\n        /* \"#utility.yul\":1551:1557   */\n      0x00\n        /* \"#utility.yul\":1578:1598   */\n      tag_118\n      tag_74\n      jump\t// in\n    tag_118:\n        /* \"#utility.yul\":1568:1598   */\n      swap1\n      pop\n        /* \"#utility.yul\":1607:1640   */\n      tag_119\n        /* \"#utility.yul\":1635:1639   */\n      dup3\n        /* \"#utility.yul\":1627:1633   */\n      dup3\n        /* \"#utility.yul\":1607:1640   */\n      tag_84\n      jump\t// in\n    tag_119:\n        /* \"#utility.yul\":1517:1646   */\n      swap2\n      swap1\n      pop\n      jump\t// out\n        /* \"#utility.yul\":1652:1960   */\n    tag_86:\n        /* \"#utility.yul\":1714:1718   */\n      0x00\n        /* \"#utility.yul\":1804:1822   */\n      0xffffffffffffffff\n        /* \"#utility.yul\":1796:1802   */\n      dup3\n        /* \"#utility.yul\":1793:1823   */\n      gt\n        /* \"#utility.yul\":1790:1846   */\n      iszero\n      tag_121\n      jumpi\n        /* \"#utility.yul\":1826:1844   */\n      tag_122\n      tag_83\n      jump\t// in\n    tag_122:\n        /* \"#utility.yul\":1790:1846   */\n    tag_121:\n        /* \"#utility.yul\":1864:1893   */\n      tag_123\n        /* \"#utility.yul\":1886:1892   */\n      dup3\n        /* \"#utility.yul\":1864:1893   */\n      tag_82\n      jump\t// in\n    tag_123:\n        /* \"#utility.yul\":1856:1893   */\n      swap1\n      pop\n        /* \"#utility.yul\":1948:1952   */\n      0x20\n        /* \"#utility.yul\":1942:1946   */\n      dup2\n        /* \"#utility.yul\":1938:1953   */\n      add\n        /* \"#utility.yul\":1930:1953   */\n      swap1\n      pop\n        /* \"#utility.yul\":1652:1960   */\n      swap2\n      swap1\n      pop\n      jump\t// out\n        /* \"#utility.yul\":1966:2120   */\n    tag_87:\n        /* \"#utility.yul\":2050:2056   */\n      dup3\n        /* \"#utility.yul\":2045:2048   */\n      dup2\n        /* \"#utility.yul\":2040:2043   */\n      dup4\n        /* \"#utility.yul\":2027:2057   */\n      calldatacopy\n        /* \"#utility.yul\":2112:2113   */\n      0x00\n        /* \"#utility.yul\":2103:2109   */\n      dup4\n        /* \"#utility.yul\":2098:2101   */\n      dup4\n        /* \"#utility.yul\":2094:2110   */\n      add\n        /* \"#utility.yul\":2087:2114   */\n      mstore\n        /* \"#utility.yul\":1966:2120   */\n      pop\n      pop\n      pop\n      jump\t// out\n        /* \"#utility.yul\":2126:2538   */\n    tag_88:\n        /* \"#utility.yul\":2204:2209   */\n      0x00\n        /* \"#utility.yul\":2229:2295   */\n      tag_126\n        /* \"#utility.yul\":2245:2294   */\n      tag_127\n        /* \"#utility.yul\":2287:2293   */\n      dup5\n        /* \"#utility.yul\":2245:2294   */\n      tag_86\n      jump\t// in\n    tag_127:\n        /* \"#utility.yul\":2229:2295   */\n      tag_85\n      jump\t// in\n    tag_126:\n        /* \"#utility.yul\":2220:2295   */\n      swap1\n      pop\n        /* \"#utility.yul\":2318:2324   */\n      dup3\n        /* \"#utility.yul\":2311:2316   */\n      dup2\n        /* \"#utility.yul\":2304:2325   */\n      mstore\n        /* \"#utility.yul\":2356:2360   */\n      0x20\n        /* \"#utility.yul\":2349:2354   */\n      dup2\n        /* \"#utility.yul\":2345:2361   */\n      add\n        /* \"#utility.yul\":2394:2397   */\n      dup5\n        /* \"#utility.yul\":2385:2391   */\n      dup5\n        /* \"#utility.yul\":2380:2383   */\n      dup5\n        /* \"#utility.yul\":2376:2392   */\n      add\n        /* \"#utility.yul\":2373:2398   */\n      gt\n        /* \"#utility.yul\":2370:2482   */\n      iszero\n      tag_128\n      jumpi\n        /* \"#utility.yul\":2401:2480   */\n      tag_129\n      tag_81\n      jump\t// in\n    tag_129:\n        /* \"#utility.yul\":2370:2482   */\n    tag_128:\n        /* \"#utility.yul\":2491:2532   */\n      tag_130\n        /* \"#utility.yul\":2525:2531   */\n      dup5\n        /* \"#utility.yul\":2520:2523   */\n      dup3\n        /* \"#utility.yul\":2515:2518   */\n      dup6\n        /* \"#utility.yul\":2491:2532   */\n      tag_87\n      jump\t// in\n    tag_130:\n        /* \"#utility.yul\":2210:2538   */\n      pop\n        /* \"#utility.yul\":2126:2538   */\n      swap4\n      swap3\n      pop\n      pop\n      pop\n      jump\t// out\n        /* \"#utility.yul\":2558:2898   */\n    tag_89:\n        /* \"#utility.yul\":2614:2619   */\n      0x00\n        /* \"#utility.yul\":2663:2666   */\n      dup3\n        /* \"#utility.yul\":2656:2660   */\n      0x1f\n        /* \"#utility.yul\":2648:2654   */\n      dup4\n        /* \"#utility.yul\":2644:2661   */\n      add\n        /* \"#utility.yul\":2640:2667   */\n      slt\n        /* \"#utility.yul\":2630:2752   */\n      tag_132\n      jumpi\n        /* \"#utility.yul\":2671:2750   */\n      tag_133\n      tag_80\n      jump\t// in\n    tag_133:\n        /* \"#utility.yul\":2630:2752   */\n    tag_132:\n        /* \"#utility.yul\":2788:2794   */\n      dup2\n        /* \"#utility.yul\":2775:2795   */\n      calldataload\n        /* \"#utility.yul\":2813:2892   */\n      tag_134\n        /* \"#utility.yul\":2888:2891   */\n      dup5\n        /* \"#utility.yul\":2880:2886   */\n      dup3\n        /* \"#utility.yul\":2873:2877   */\n      0x20\n        /* \"#utility.yul\":2865:2871   */\n      dup7\n        /* \"#utility.yul\":2861:2878   */\n      add\n        /* \"#utility.yul\":2813:2892   */\n      tag_88\n      jump\t// in\n    tag_134:\n        /* \"#utility.yul\":2804:2892   */\n      swap2\n      pop\n        /* \"#utility.yul\":2620:2898   */\n      pop\n        /* \"#utility.yul\":2558:2898   */\n      swap3\n      swap2\n      pop\n      pop\n      jump\t// out\n        /* \"#utility.yul\":2904:3883   */\n    tag_10:\n        /* \"#utility.yul\":3001:3007   */\n      0x00\n        /* \"#utility.yul\":3009:3015   */\n      dup1\n        /* \"#utility.yul\":3017:3023   */\n      0x00\n        /* \"#utility.yul\":3066:3068   */\n      0x60\n        /* \"#utility.yul\":3054:3063   */\n      dup5\n        /* \"#utility.yul\":3045:3052   */\n      dup7\n        /* \"#utility.yul\":3041:3064   */\n      sub\n        /* \"#utility.yul\":3037:3069   */\n      slt\n        /* \"#utility.yul\":3034:3153   */\n      iszero\n      tag_136\n      jumpi\n        /* \"#utility.yul\":3072:3151   */\n      tag_137\n      tag_75\n      jump\t// in\n    tag_137:\n        /* \"#utility.yul\":3034:3153   */\n    tag_136:\n        /* \"#utility.yul\":3192:3193   */\n      0x00\n        /* \"#utility.yul\":3217:3270   */\n      tag_138\n        /* \"#utility.yul\":3262:3269   */\n      dup7\n        /* \"#utility.yul\":3253:3259   */\n      dup3\n        /* \"#utility.yul\":3242:3251   */\n      dup8\n        /* \"#utility.yul\":3238:3260   */\n      add\n        /* \"#utility.yul\":3217:3270   */\n      tag_79\n      jump\t// in\n    tag_138:\n        /* \"#utility.yul\":3207:3270   */\n      swap4\n      pop\n        /* \"#utility.yul\":3163:3280   */\n      pop\n        /* \"#utility.yul\":3347:3349   */\n      0x20\n        /* \"#utility.yul\":3336:3345   */\n      dup5\n        /* \"#utility.yul\":3332:3350   */\n      add\n        /* \"#utility.yul\":3319:3351   */\n      calldataload\n        /* \"#utility.yul\":3378:3396   */\n      0xffffffffffffffff\n        /* \"#utility.yul\":3370:3376   */\n      dup2\n        /* \"#utility.yul\":3367:3397   */\n      gt\n        /* \"#utility.yul\":3364:3481   */\n      iszero\n      tag_139\n      jumpi\n        /* \"#utility.yul\":3400:3479   */\n      tag_140\n      tag_76\n      jump\t// in\n    tag_140:\n        /* \"#utility.yul\":3364:3481   */\n    tag_139:\n        /* \"#utility.yul\":3505:3568   */\n      tag_141\n        /* \"#utility.yul\":3560:3567   */\n      dup7\n        /* \"#utility.yul\":3551:3557   */\n      dup3\n        /* \"#utility.yul\":3540:3549   */\n      dup8\n        /* \"#utility.yul\":3536:3558   */\n      add\n        /* \"#utility.yul\":3505:3568   */\n      tag_89\n      jump\t// in\n    tag_141:\n        /* \"#utility.yul\":3495:3568   */\n      swap3\n      pop\n        /* \"#utility.yul\":3290:3578   */\n      pop\n        /* \"#utility.yul\":3645:3647   */\n      0x40\n        /* \"#utility.yul\":3634:3643   */\n      dup5\n        /* \"#utility.yul\":3630:3648   */\n      add\n        /* \"#utility.yul\":3617:3649   */\n      calldataload\n        /* \"#utility.yul\":3676:3694   */\n      0xffffffffffffffff\n        /* \"#utility.yul\":3668:3674   */\n      dup2\n        /* \"#utility.yul\":3665:3695   */\n      gt\n        /* \"#utility.yul\":3662:3779   */\n      iszero\n      tag_142\n      jumpi\n        /* \"#utility.yul\":3698:3777   */\n      tag_143\n      tag_76\n      jump\t// in\n    tag_143:\n        /* \"#utility.yul\":3662:3779   */\n    tag_142:\n        /* \"#utility.yul\":3803:3866   */\n      tag_144\n        /* \"#utility.yul\":3858:3865   */\n      dup7\n        /* \"#utility.yul\":3849:3855   */\n      dup3\n        /* \"#utility.yul\":3838:3847   */\n      dup8\n        /* \"#utility.yul\":3834:3856   */\n      add\n        /* \"#utility.yul\":3803:3866   */\n      tag_89\n      jump\t// in\n    tag_144:\n        /* \"#utility.yul\":3793:3866   */\n      swap2\n      pop\n        /* \"#utility.yul\":3588:3876   */\n      pop\n        /* \"#utility.yul\":2904:3883   */\n      swap3\n      pop\n      swap3\n      pop\n      swap3\n      jump\t// out\n        /* \"#utility.yul\":3889:4015   */\n    tag_90:\n        /* \"#utility.yul\":3926:3933   */\n      0x00\n        /* \"#utility.yul\":3966:4008   */\n      0xffffffffffffffffffffffffffffffffffffffff\n        /* \"#utility.yul\":3959:3964   */\n      dup3\n        /* \"#utility.yul\":3955:4009   */\n      and\n        /* \"#utility.yul\":3944:4009   */\n      swap1\n      pop\n        /* \"#utility.yul\":3889:4015   */\n      swap2\n      swap1\n      pop\n      jump\t// out\n        /* \"#utility.yul\":4021:4117   */\n    tag_91:\n        /* \"#utility.yul\":4058:4065   */\n      0x00\n        /* \"#utility.yul\":4087:4111   */\n      tag_147\n        /* \"#utility.yul\":4105:4110   */\n      dup3\n        /* \"#utility.yul\":4087:4111   */\n      tag_90\n      jump\t// in\n    tag_147:\n        /* \"#utility.yul\":4076:4111   */\n      swap1\n      pop\n        /* \"#utility.yul\":4021:4117   */\n      swap2\n      swap1\n      pop\n      jump\t// out\n        /* \"#utility.yul\":4123:4245   */\n    tag_92:\n        /* \"#utility.yul\":4196:4220   */\n      tag_149\n        /* \"#utility.yul\":4214:4219   */\n      dup2\n        /* \"#utility.yul\":4196:4220   */\n      tag_91\n      jump\t// in\n    tag_149:\n        /* \"#utility.yul\":4189:4194   */\n      dup2\n        /* \"#utility.yul\":4186:4221   */\n      eq\n        /* \"#utility.yul\":4176:4239   */\n      tag_150\n      jumpi\n        /* \"#utility.yul\":4235:4236   */\n      0x00\n        /* \"#utility.yul\":4232:4233   */\n      dup1\n        /* \"#utility.yul\":4225:4237   */\n      revert\n        /* \"#utility.yul\":4176:4239   */\n    tag_150:\n        /* \"#utility.yul\":4123:4245   */\n      pop\n      jump\t// out\n        /* \"#utility.yul\":4251:4390   */\n    tag_93:\n        /* \"#utility.yul\":4297:4302   */\n      0x00\n        /* \"#utility.yul\":4335:4341   */\n      dup2\n        /* \"#utility.yul\":4322:4342   */\n      calldataload\n        /* \"#utility.yul\":4313:4342   */\n      swap1\n      pop\n        /* \"#utility.yul\":4351:4384   */\n      tag_152\n        /* \"#utility.yul\":4378:4383   */\n      dup2\n        /* \"#utility.yul\":4351:4384   */\n      tag_92\n      jump\t// in\n    tag_152:\n        /* \"#utility.yul\":4251:4390   */\n      swap3\n      swap2\n      pop\n      pop\n      jump\t// out\n        /* \"#utility.yul\":4396:4870   */\n    tag_14:\n        /* \"#utility.yul\":4464:4470   */\n      0x00\n        /* \"#utility.yul\":4472:4478   */\n      dup1\n        /* \"#utility.yul\":4521:4523   */\n      0x40\n        /* \"#utility.yul\":4509:4518   */\n      dup4\n        /* \"#utility.yul\":4500:4507   */\n      dup6\n        /* \"#utility.yul\":4496:4519   */\n      sub\n        /* \"#utility.yul\":4492:4524   */\n      slt\n        /* \"#utility.yul\":4489:4608   */\n      iszero\n      tag_154\n      jumpi\n        /* \"#utility.yul\":4527:4606   */\n      tag_155\n      tag_75\n      jump\t// in\n    tag_155:\n        /* \"#utility.yul\":4489:4608   */\n    tag_154:\n        /* \"#utility.yul\":4647:4648   */\n      0x00\n        /* \"#utility.yul\":4672:4725   */\n      tag_156\n        /* \"#utility.yul\":4717:4724   */\n      dup6\n        /* \"#utility.yul\":4708:4714   */\n      dup3\n        /* \"#utility.yul\":4697:4706   */\n      dup7\n        /* \"#utility.yul\":4693:4715   */\n      add\n        /* \"#utility.yul\":4672:4725   */\n      tag_93\n      jump\t// in\n    tag_156:\n        /* \"#utility.yul\":4662:4725   */\n      swap3\n      pop\n        /* \"#utility.yul\":4618:4735   */\n      pop\n        /* \"#utility.yul\":4774:4776   */\n      0x20\n        /* \"#utility.yul\":4800:4853   */\n      tag_157\n        /* \"#utility.yul\":4845:4852   */\n      dup6\n        /* \"#utility.yul\":4836:4842   */\n      dup3\n        /* \"#utility.yul\":4825:4834   */\n      dup7\n        /* \"#utility.yul\":4821:4843   */\n      add\n        /* \"#utility.yul\":4800:4853   */\n      tag_79\n      jump\t// in\n    tag_157:\n        /* \"#utility.yul\":4790:4853   */\n      swap2\n      pop\n        /* \"#utility.yul\":4745:4863   */\n      pop\n        /* \"#utility.yul\":4396:4870   */\n      swap3\n      pop\n      swap3\n      swap1\n      pop\n      jump\t// out\n        /* \"#utility.yul\":4876:4975   */\n    tag_94:\n        /* \"#utility.yul\":4928:4934   */\n      0x00\n        /* \"#utility.yul\":4962:4967   */\n      dup2\n        /* \"#utility.yul\":4956:4968   */\n      mload\n        /* \"#utility.yul\":4946:4968   */\n      swap1\n      pop\n        /* \"#utility.yul\":4876:4975   */\n      swap2\n      swap1\n      pop\n      jump\t// out\n        /* \"#utility.yul\":4981:5150   */\n    tag_95:\n        /* \"#utility.yul\":5065:5076   */\n      0x00\n        /* \"#utility.yul\":5099:5105   */\n      dup3\n        /* \"#utility.yul\":5094:5097   */\n      dup3\n        /* \"#utility.yul\":5087:5106   */\n      mstore\n        /* \"#utility.yul\":5139:5143   */\n      0x20\n        /* \"#utility.yul\":5134:5137   */\n      dup3\n        /* \"#utility.yul\":5130:5144   */\n      add\n        /* \"#utility.yul\":5115:5144   */\n      swap1\n      pop\n        /* \"#utility.yul\":4981:5150   */\n      swap3\n      swap2\n      pop\n      pop\n      jump\t// out\n        /* \"#utility.yul\":5156:5463   */\n    tag_96:\n        /* \"#utility.yul\":5224:5225   */\n      0x00\n        /* \"#utility.yul\":5234:5347   */\n    tag_161:\n        /* \"#utility.yul\":5248:5254   */\n      dup4\n        /* \"#utility.yul\":5245:5246   */\n      dup2\n        /* \"#utility.yul\":5242:5255   */\n      lt\n        /* \"#utility.yul\":5234:5347   */\n      iszero\n      tag_163\n      jumpi\n        /* \"#utility.yul\":5333:5334   */\n      dup1\n        /* \"#utility.yul\":5328:5331   */\n      dup3\n        /* \"#utility.yul\":5324:5335   */\n      add\n        /* \"#utility.yul\":5318:5336   */\n      mload\n        /* \"#utility.yul\":5314:5315   */\n      dup2\n        /* \"#utility.yul\":5309:5312   */\n      dup5\n        /* \"#utility.yul\":5305:5316   */\n      add\n        /* \"#utility.yul\":5298:5337   */\n      mstore\n        /* \"#utility.yul\":5270:5272   */\n      0x20\n        /* \"#utility.yul\":5267:5268   */\n      dup2\n        /* \"#utility.yul\":5263:5273   */\n      add\n        /* \"#utility.yul\":5258:5273   */\n      swap1\n      pop\n        /* \"#utility.yul\":5234:5347   */\n      jump(tag_161)\n    tag_163:\n        /* \"#utility.yul\":5365:5371   */\n      dup4\n        /* \"#utility.yul\":5362:5363   */\n      dup2\n        /* \"#utility.yul\":5359:5372   */\n      gt\n        /* \"#utility.yul\":5356:5457   */\n      iszero\n      tag_164\n      jumpi\n        /* \"#utility.yul\":5445:5446   */\n      0x00\n        /* \"#utility.yul\":5436:5442   */\n      dup5\n        /* \"#utility.yul\":5431:5434   */\n      dup5\n        /* \"#utility.yul\":5427:5443   */\n      add\n        /* \"#utility.yul\":5420:5447   */\n      mstore\n        /* \"#utility.yul\":5356:5457   */\n    tag_164:\n        /* \"#utility.yul\":5205:5463   */\n      pop\n        /* \"#utility.yul\":5156:5463   */\n      pop\n      pop\n      pop\n      jump\t// out\n        /* \"#utility.yul\":5469:5833   */\n    tag_97:\n        /* \"#utility.yul\":5557:5560   */\n      0x00\n        /* \"#utility.yul\":5585:5624   */\n      tag_166\n        /* \"#utility.yul\":5618:5623   */\n      dup3\n        /* \"#utility.yul\":5585:5624   */\n      tag_94\n      jump\t// in\n    tag_166:\n        /* \"#utility.yul\":5640:5711   */\n      tag_167\n        /* \"#utility.yul\":5704:5710   */\n      dup2\n        /* \"#utility.yul\":5699:5702   */\n      dup6\n        /* \"#utility.yul\":5640:5711   */\n      tag_95\n      jump\t// in\n    tag_167:\n        /* \"#utility.yul\":5633:5711   */\n      swap4\n      pop\n        /* \"#utility.yul\":5720:5772   */\n      tag_168\n        /* \"#utility.yul\":5765:5771   */\n      dup2\n        /* \"#utility.yul\":5760:5763   */\n      dup6\n        /* \"#utility.yul\":5753:5757   */\n      0x20\n        /* \"#utility.yul\":5746:5751   */\n      dup7\n        /* \"#utility.yul\":5742:5758   */\n      add\n        /* \"#utility.yul\":5720:5772   */\n      tag_96\n      jump\t// in\n    tag_168:\n        /* \"#utility.yul\":5797:5826   */\n      tag_169\n        /* \"#utility.yul\":5819:5825   */\n      dup2\n        /* \"#utility.yul\":5797:5826   */\n      tag_82\n      jump\t// in\n    tag_169:\n        /* \"#utility.yul\":5792:5795   */\n      dup5\n        /* \"#utility.yul\":5788:5827   */\n      add\n        /* \"#utility.yul\":5781:5827   */\n      swap2\n      pop\n        /* \"#utility.yul\":5561:5833   */\n      pop\n        /* \"#utility.yul\":5469:5833   */\n      swap3\n      swap2\n      pop\n      pop\n      jump\t// out\n        /* \"#utility.yul\":5839:6353   */\n    tag_17:\n        /* \"#utility.yul\":6000:6004   */\n      0x00\n        /* \"#utility.yul\":6038:6040   */\n      0x40\n        /* \"#utility.yul\":6027:6036   */\n      dup3\n        /* \"#utility.yul\":6023:6041   */\n      add\n        /* \"#utility.yul\":6015:6041   */\n      swap1\n      pop\n        /* \"#utility.yul\":6087:6096   */\n      dup2\n        /* \"#utility.yul\":6081:6085   */\n      dup2\n        /* \"#utility.yul\":6077:6097   */\n      sub\n        /* \"#utility.yul\":6073:6074   */\n      0x00\n        /* \"#utility.yul\":6062:6071   */\n      dup4\n        /* \"#utility.yul\":6058:6075   */\n      add\n        /* \"#utility.yul\":6051:6098   */\n      mstore\n        /* \"#utility.yul\":6115:6193   */\n      tag_171\n        /* \"#utility.yul\":6188:6192   */\n      dup2\n        /* \"#utility.yul\":6179:6185   */\n      dup6\n        /* \"#utility.yul\":6115:6193   */\n      tag_97\n      jump\t// in\n    tag_171:\n        /* \"#utility.yul\":6107:6193   */\n      swap1\n      pop\n        /* \"#utility.yul\":6240:6249   */\n      dup2\n        /* \"#utility.yul\":6234:6238   */\n      dup2\n        /* \"#utility.yul\":6230:6250   */\n      sub\n        /* \"#utility.yul\":6225:6227   */\n      0x20\n        /* \"#utility.yul\":6214:6223   */\n      dup4\n        /* \"#utility.yul\":6210:6228   */\n      add\n        /* \"#utility.yul\":6203:6251   */\n      mstore\n        /* \"#utility.yul\":6268:6346   */\n      tag_172\n        /* \"#utility.yul\":6341:6345   */\n      dup2\n        /* \"#utility.yul\":6332:6338   */\n      dup5\n        /* \"#utility.yul\":6268:6346   */\n      tag_97\n      jump\t// in\n    tag_172:\n        /* \"#utility.yul\":6260:6346   */\n      swap1\n      pop\n        /* \"#utility.yul\":5839:6353   */\n      swap4\n      swap3\n      pop\n      pop\n      pop\n      jump\t// out\n        /* \"#utility.yul\":6359:6688   */\n    tag_20:\n        /* \"#utility.yul\":6418:6424   */\n      0x00\n        /* \"#utility.yul\":6467:6469   */\n      0x20\n        /* \"#utility.yul\":6455:6464   */\n      dup3\n        /* \"#utility.yul\":6446:6453   */\n      dup5\n        /* \"#utility.yul\":6442:6465   */\n      sub\n        /* \"#utility.yul\":6438:6470   */\n      slt\n        /* \"#utility.yul\":6435:6554   */\n      iszero\n      tag_174\n      jumpi\n        /* \"#utility.yul\":6473:6552   */\n      tag_175\n      tag_75\n      jump\t// in\n    tag_175:\n        /* \"#utility.yul\":6435:6554   */\n    tag_174:\n        /* \"#utility.yul\":6593:6594   */\n      0x00\n        /* \"#utility.yul\":6618:6671   */\n      tag_176\n        /* \"#utility.yul\":6663:6670   */\n      dup5\n        /* \"#utility.yul\":6654:6660   */\n      dup3\n        /* \"#utility.yul\":6643:6652   */\n      dup6\n        /* \"#utility.yul\":6639:6661   */\n      add\n        /* \"#utility.yul\":6618:6671   */\n      tag_79\n      jump\t// in\n    tag_176:\n        /* \"#utility.yul\":6608:6671   */\n      swap2\n      pop\n        /* \"#utility.yul\":6564:6681   */\n      pop\n        /* \"#utility.yul\":6359:6688   */\n      swap3\n      swap2\n      pop\n      pop\n      jump\t// out\n        /* \"#utility.yul\":6694:7007   */\n    tag_23:\n        /* \"#utility.yul\":6807:6811   */\n      0x00\n        /* \"#utility.yul\":6845:6847   */\n      0x20\n        /* \"#utility.yul\":6834:6843   */\n      dup3\n        /* \"#utility.yul\":6830:6848   */\n      add\n        /* \"#utility.yul\":6822:6848   */\n      swap1\n      pop\n        /* \"#utility.yul\":6894:6903   */\n      dup2\n        /* \"#utility.yul\":6888:6892   */\n      dup2\n        /* \"#utility.yul\":6884:6904   */\n      sub\n        /* \"#utility.yul\":6880:6881   */\n      0x00\n        /* \"#utility.yul\":6869:6878   */\n      dup4\n        /* \"#utility.yul\":6865:6882   */\n      add\n        /* \"#utility.yul\":6858:6905   */\n      mstore\n        /* \"#utility.yul\":6922:7000   */\n      tag_178\n        /* \"#utility.yul\":6995:6999   */\n      dup2\n        /* \"#utility.yul\":6986:6992   */\n      dup5\n        /* \"#utility.yul\":6922:7000   */\n      tag_97\n      jump\t// in\n    tag_178:\n        /* \"#utility.yul\":6914:7000   */\n      swap1\n      pop\n        /* \"#utility.yul\":6694:7007   */\n      swap3\n      swap2\n      pop\n      pop\n      jump\t// out\n        /* \"#utility.yul\":7013:7193   */\n    tag_98:\n        /* \"#utility.yul\":7061:7138   */\n      0x4e487b7100000000000000000000000000000000000000000000000000000000\n        /* \"#utility.yul\":7058:7059   */\n      0x00\n        /* \"#utility.yul\":7051:7139   */\n      mstore\n        /* \"#utility.yul\":7158:7162   */\n      0x22\n        /* \"#utility.yul\":7155:7156   */\n      0x04\n        /* \"#utility.yul\":7148:7163   */\n      mstore\n        /* \"#utility.yul\":7182:7186   */\n      0x24\n        /* \"#utility.yul\":7179:7180   */\n      0x00\n        /* \"#utility.yul\":7172:7187   */\n      revert\n        /* \"#utility.yul\":7199:7519   */\n    tag_36:\n        /* \"#utility.yul\":7243:7249   */\n      0x00\n        /* \"#utility.yul\":7280:7281   */\n      0x02\n        /* \"#utility.yul\":7274:7278   */\n      dup3\n        /* \"#utility.yul\":7270:7282   */\n      div\n        /* \"#utility.yul\":7260:7282   */\n      swap1\n      pop\n        /* \"#utility.yul\":7327:7328   */\n      0x01\n        /* \"#utility.yul\":7321:7325   */\n      dup3\n        /* \"#utility.yul\":7317:7329   */\n      and\n        /* \"#utility.yul\":7348:7366   */\n      dup1\n        /* \"#utility.yul\":7338:7419   */\n      tag_181\n      jumpi\n        /* \"#utility.yul\":7404:7408   */\n      0x7f\n        /* \"#utility.yul\":7396:7402   */\n      dup3\n        /* \"#utility.yul\":7392:7409   */\n      and\n        /* \"#utility.yul\":7382:7409   */\n      swap2\n      pop\n        /* \"#utility.yul\":7338:7419   */\n    tag_181:\n        /* \"#utility.yul\":7466:7468   */\n      0x20\n        /* \"#utility.yul\":7458:7464   */\n      dup3\n        /* \"#utility.yul\":7455:7469   */\n      lt\n        /* \"#utility.yul\":7435:7453   */\n      dup2\n        /* \"#utility.yul\":7432:7470   */\n      eq\n        /* \"#utility.yul\":7429:7513   */\n      iszero\n      tag_182\n      jumpi\n        /* \"#utility.yul\":7485:7503   */\n      tag_183\n      tag_98\n      jump\t// in\n    tag_183:\n        /* \"#utility.yul\":7429:7513   */\n    tag_182:\n        /* \"#utility.yul\":7250:7519   */\n      pop\n        /* \"#utility.yul\":7199:7519   */\n      swap2\n      swap1\n      pop\n      jump\t// out\n\n    auxdata: 0xa26469706673582212201f428c2b97898ae8356123cf6b12365d61ffa9c9cfbfef53722b92f403be068a64736f6c634300080c0033\n}\n",
				"bytecode": {
					"linkReferences": {},
					"object": "60806040523480156200001157600080fd5b506040518060400160405280600381526020017f426f6200000000000000000000000000000000000000000000000000000000008152506000806001815260200190815260200160002090805190602001906200007092919062000135565b506040518060400160405280600581526020017f416c696365000000000000000000000000000000000000000000000000000000815250600080600281526020019081526020016000209080519060200190620000cf92919062000135565b506040518060400160405280600481526020017f4361726c000000000000000000000000000000000000000000000000000000008152506000806003815260200190815260200160002090805190602001906200012e92919062000135565b506200024a565b828054620001439062000214565b90600052602060002090601f016020900481019282620001675760008555620001b3565b82601f106200018257805160ff1916838001178555620001b3565b82800160010185558215620001b3579182015b82811115620001b257825182559160200191906001019062000195565b5b509050620001c29190620001c6565b5090565b5b80821115620001e1576000816000905550600101620001c7565b5090565b7f4e487b7100000000000000000000000000000000000000000000000000000000600052602260045260246000fd5b600060028204905060018216806200022d57607f821691505b60208210811415620002445762000243620001e5565b5b50919050565b610a4d806200025a6000396000f3fe608060405234801561001057600080fd5b50600436106100575760003560e01c8063028414f21461005c57806327d3553f146100785780634622ab03146100a9578063493ec707146100d957806368744046146100f5575b600080fd5b6100766004803603810190610071919061077f565b610126565b005b610092600480360381019061008d9190610868565b610190565b6040516100a0929190610930565b60405180910390f35b6100c360048036038101906100be9190610967565b6102d1565b6040516100d09190610994565b60405180910390f35b6100f360048036038101906100ee919061077f565b610371565b005b61010f600480360381019061010a9190610967565b610418565b60405161011d929190610930565b60405180910390f35b60405180604001604052808381526020018281525060016000858152602001908152602001600020600082015181600001908051906020019061016a92919061054c565b50602082015181600101908051906020019061018792919061054c565b50905050505050565b6002602052816000526040600020602052806000526040600020600091509150508060000180546101c0906109e5565b80601f01602080910402602001604051908101604052809291908181526020018280546101ec906109e5565b80156102395780601f1061020e57610100808354040283529160200191610239565b820191906000526020600020905b81548152906001019060200180831161021c57829003601f168201915b50505050509080600101805461024e906109e5565b80601f016020809104026020016040519081016040528092919081815260200182805461027a906109e5565b80156102c75780601f1061029c576101008083540402835291602001916102c7565b820191906000526020600020905b8154815290600101906020018083116102aa57829003601f168201915b5050505050905082565b600060205280600052604060002060009150905080546102f0906109e5565b80601f016020809104026020016040519081016040528092919081815260200182805461031c906109e5565b80156103695780601f1061033e57610100808354040283529160200191610369565b820191906000526020600020905b81548152906001019060200180831161034c57829003601f168201915b505050505081565b604051806040016040528083815260200182815250600260003373ffffffffffffffffffffffffffffffffffffffff1673ffffffffffffffffffffffffffffffffffffffff168152602001908152602001600020600085815260200190815260200160002060008201518160000190805190602001906103f292919061054c565b50602082015181600101908051906020019061040f92919061054c565b50905050505050565b600160205280600052604060002060009150905080600001805461043b906109e5565b80601f0160208091040260200160405190810160405280929190818152602001828054610467906109e5565b80156104b45780601f10610489576101008083540402835291602001916104b4565b820191906000526020600020905b81548152906001019060200180831161049757829003601f168201915b5050505050908060010180546104c9906109e5565b80601f01602080910402602001604051908101604052809291908181526020018280546104f5906109e5565b80156105425780601f1061051757610100808354040283529160200191610542565b820191906000526020600020905b81548152906001019060200180831161052557829003601f168201915b5050505050905082565b828054610558906109e5565b90600052602060002090601f01602090048101928261057a57600085556105c1565b82601f1061059357805160ff19168380011785556105c1565b828001600101855582156105c1579182015b828111156105c05782518255916020019190600101906105a5565b5b5090506105ce91906105d2565b5090565b5b808211156105eb5760008160009055506001016105d3565b5090565b6000604051905090565b600080fd5b600080fd5b6000819050919050565b61061681610603565b811461062157600080fd5b50565b6000813590506106338161060d565b92915050565b600080fd5b600080fd5b6000601f19601f8301169050919050565b7f4e487b7100000000000000000000000000000000000000000000000000000000600052604160045260246000fd5b61068c82610643565b810181811067ffffffffffffffff821117156106ab576106aa610654565b5b80604052505050565b60006106be6105ef565b90506106ca8282610683565b919050565b600067ffffffffffffffff8211156106ea576106e9610654565b5b6106f382610643565b9050602081019050919050565b82818337600083830152505050565b600061072261071d846106cf565b6106b4565b90508281526020810184848401111561073e5761073d61063e565b5b610749848285610700565b509392505050565b600082601f83011261076657610765610639565b5b813561077684826020860161070f565b91505092915050565b600080600060608486031215610798576107976105f9565b5b60006107a686828701610624565b935050602084013567ffffffffffffffff8111156107c7576107c66105fe565b5b6107d386828701610751565b925050604084013567ffffffffffffffff8111156107f4576107f36105fe565b5b61080086828701610751565b9150509250925092565b600073ffffffffffffffffffffffffffffffffffffffff82169050919050565b60006108358261080a565b9050919050565b6108458161082a565b811461085057600080fd5b50565b6000813590506108628161083c565b92915050565b6000806040838503121561087f5761087e6105f9565b5b600061088d85828601610853565b925050602061089e85828601610624565b9150509250929050565b600081519050919050565b600082825260208201905092915050565b60005b838110156108e25780820151818401526020810190506108c7565b838111156108f1576000848401525b50505050565b6000610902826108a8565b61090c81856108b3565b935061091c8185602086016108c4565b61092581610643565b840191505092915050565b6000604082019050818103600083015261094a81856108f7565b9050818103602083015261095e81846108f7565b90509392505050565b60006020828403121561097d5761097c6105f9565b5b600061098b84828501610624565b91505092915050565b600060208201905081810360008301526109ae81846108f7565b905092915050565b7f4e487b7100000000000000000000000000000000000000000000000000000000600052602260045260246000fd5b600060028204905060018216806109fd57607f821691505b60208210811415610a1157610a106109b6565b5b5091905056fea26469706673582212201f428c2b97898ae8356123cf6b12365d61ffa9c9cfbfef53722b92f403be068a64736f6c634300080c0033",
					"opcodes": "PUSH1 0x80 PUSH1 0x40 MSTORE CALLVALUE DUP1 ISZERO PUSH3 0x11 JUMPI PUSH1 0x0 DUP1 REVERT JUMPDEST POP PUSH1 0x40 MLOAD DUP1 PUSH1 0x40 ADD PUSH1 0x40 MSTORE DUP1 PUSH1 0x3 DUP2 MSTORE PUSH1 0x20 ADD PUSH32 0x426F620000000000000000000000000000000000000000000000000000000000 DUP2 MSTORE POP PUSH1 0x0 DUP1 PUSH1 0x1 DUP2 MSTORE PUSH1 0x20 ADD SWAP1 DUP2 MSTORE PUSH1 0x20 ADD PUSH1 0x0 KECCAK256 SWAP1 DUP1 MLOAD SWAP1 PUSH1 0x20 ADD SWAP1 PUSH3 0x70 SWAP3 SWAP2 SWAP1 PUSH3 0x135 JUMP JUMPDEST POP PUSH1 0x40 MLOAD DUP1 PUSH1 0x40 ADD PUSH1 0x40 MSTORE DUP1 PUSH1 0x5 DUP2 MSTORE PUSH1 0x20 ADD PUSH32 0x416C696365000000000000000000000000000000000000000000000000000000 DUP2 MSTORE POP PUSH1 0x0 DUP1 PUSH1 0x2 DUP2 MSTORE PUSH1 0x20 ADD SWAP1 DUP2 MSTORE PUSH1 0x20 ADD PUSH1 0x0 KECCAK256 SWAP1 DUP1 MLOAD SWAP1 PUSH1 0x20 ADD SWAP1 PUSH3 0xCF SWAP3 SWAP2 SWAP1 PUSH3 0x135 JUMP JUMPDEST POP PUSH1 0x40 MLOAD DUP1 PUSH1 0x40 ADD PUSH1 0x40 MSTORE DUP1 PUSH1 0x4 DUP2 MSTORE PUSH1 0x20 ADD PUSH32 0x4361726C00000000000000000000000000000000000000000000000000000000 DUP2 MSTORE POP PUSH1 0x0 DUP1 PUSH1 0x3 DUP2 MSTORE PUSH1 0x20 ADD SWAP1 DUP2 MSTORE PUSH1 0x20 ADD PUSH1 0x0 KECCAK256 SWAP1 DUP1 MLOAD SWAP1 PUSH1 0x20 ADD SWAP1 PUSH3 0x12E SWAP3 SWAP2 SWAP1 PUSH3 0x135 JUMP JUMPDEST POP PUSH3 0x24A JUMP JUMPDEST DUP3 DUP1 SLOAD PUSH3 0x143 SWAP1 PUSH3 0x214 JUMP JUMPDEST SWAP1 PUSH1 0x0 MSTORE PUSH1 0x20 PUSH1 0x0 KECCAK256 SWAP1 PUSH1 0x1F ADD PUSH1 0x20 SWAP1 DIV DUP2 ADD SWAP3 DUP3 PUSH3 0x167 JUMPI PUSH1 0x0 DUP6 SSTORE PUSH3 0x1B3 JUMP JUMPDEST DUP3 PUSH1 0x1F LT PUSH3 0x182 JUMPI DUP1 MLOAD PUSH1 0xFF NOT AND DUP4 DUP1 ADD OR DUP6 SSTORE PUSH3 0x1B3 JUMP JUMPDEST DUP3 DUP1 ADD PUSH1 0x1 ADD DUP6 SSTORE DUP3 ISZERO PUSH3 0x1B3 JUMPI SWAP2 DUP3 ADD JUMPDEST DUP3 DUP2 GT ISZERO PUSH3 0x1B2 JUMPI DUP3 MLOAD DUP3 SSTORE SWAP2 PUSH1 0x20 ADD SWAP2 SWAP1 PUSH1 0x1 ADD SWAP1 PUSH3 0x195 JUMP JUMPDEST JUMPDEST POP SWAP1 POP PUSH3 0x1C2 SWAP2 SWAP1 PUSH3 0x1C6 JUMP JUMPDEST POP SWAP1 JUMP JUMPDEST JUMPDEST DUP1 DUP3 GT ISZERO PUSH3 0x1E1 JUMPI PUSH1 0x0 DUP2 PUSH1 0x0 SWAP1 SSTORE POP PUSH1 0x1 ADD PUSH3 0x1C7 JUMP JUMPDEST POP SWAP1 JUMP JUMPDEST PUSH32 0x4E487B7100000000000000000000000000000000000000000000000000000000 PUSH1 0x0 MSTORE PUSH1 0x22 PUSH1 0x4 MSTORE PUSH1 0x24 PUSH1 0x0 REVERT JUMPDEST PUSH1 0x0 PUSH1 0x2 DUP3 DIV SWAP1 POP PUSH1 0x1 DUP3 AND DUP1 PUSH3 0x22D JUMPI PUSH1 0x7F DUP3 AND SWAP2 POP JUMPDEST PUSH1 0x20 DUP3 LT DUP2 EQ ISZERO PUSH3 0x244 JUMPI PUSH3 0x243 PUSH3 0x1E5 JUMP JUMPDEST JUMPDEST POP SWAP2 SWAP1 POP JUMP JUMPDEST PUSH2 0xA4D DUP1 PUSH3 0x25A PUSH1 0x0 CODECOPY PUSH1 0x0 RETURN INVALID PUSH1 0x80 PUSH1 0x40 MSTORE CALLVALUE DUP1 ISZERO PUSH2 0x10 JUMPI PUSH1 0x0 DUP1 REVERT JUMPDEST POP PUSH1 0x4 CALLDATASIZE LT PUSH2 0x57 JUMPI PUSH1 0x0 CALLDATALOAD PUSH1 0xE0 SHR DUP1 PUSH4 0x28414F2 EQ PUSH2 0x5C JUMPI DUP1 PUSH4 0x27D3553F EQ PUSH2 0x78 JUMPI DUP1 PUSH4 0x4622AB03 EQ PUSH2 0xA9 JUMPI DUP1 PUSH4 0x493EC707 EQ PUSH2 0xD9 JUMPI DUP1 PUSH4 0x68744046 EQ PUSH2 0xF5 JUMPI JUMPDEST PUSH1 0x0 DUP1 REVERT JUMPDEST PUSH2 0x76 PUSH1 0x4 DUP1 CALLDATASIZE SUB DUP2 ADD SWAP1 PUSH2 0x71 SWAP2 SWAP1 PUSH2 0x77F JUMP JUMPDEST PUSH2 0x126 JUMP JUMPDEST STOP JUMPDEST PUSH2 0x92 PUSH1 0x4 DUP1 CALLDATASIZE SUB DUP2 ADD SWAP1 PUSH2 0x8D SWAP2 SWAP1 PUSH2 0x868 JUMP JUMPDEST PUSH2 0x190 JUMP JUMPDEST PUSH1 0x40 MLOAD PUSH2 0xA0 SWAP3 SWAP2 SWAP1 PUSH2 0x930 JUMP JUMPDEST PUSH1 0x40 MLOAD DUP1 SWAP2 SUB SWAP1 RETURN JUMPDEST PUSH2 0xC3 PUSH1 0x4 DUP1 CALLDATASIZE SUB DUP2 ADD SWAP1 PUSH2 0xBE SWAP2 SWAP1 PUSH2 0x967 JUMP JUMPDEST PUSH2 0x2D1 JUMP JUMPDEST PUSH1 0x40 MLOAD PUSH2 0xD0 SWAP2 SWAP1 PUSH2 0x994 JUMP JUMPDEST PUSH1 0x40 MLOAD DUP1 SWAP2 SUB SWAP1 RETURN JUMPDEST PUSH2 0xF3 PUSH1 0x4 DUP1 CALLDATASIZE SUB DUP2 ADD SWAP1 PUSH2 0xEE SWAP2 SWAP1 PUSH2 0x77F JUMP JUMPDEST PUSH2 0x371 JUMP JUMPDEST STOP JUMPDEST PUSH2 0x10F PUSH1 0x4 DUP1 CALLDATASIZE SUB DUP2 ADD SWAP1 PUSH2 0x10A SWAP2 SWAP1 PUSH2 0x967 JUMP JUMPDEST PUSH2 0x418 JUMP JUMPDEST PUSH1 0x40 MLOAD PUSH2 0x11D SWAP3 SWAP2 SWAP1 PUSH2 0x930 JUMP JUMPDEST PUSH1 0x40 MLOAD DUP1 SWAP2 SUB SWAP1 RETURN JUMPDEST PUSH1 0x40 MLOAD DUP1 PUSH1 0x40 ADD PUSH1 0x40 MSTORE DUP1 DUP4 DUP2 MSTORE PUSH1 0x20 ADD DUP3 DUP2 MSTORE POP PUSH1 0x1 PUSH1 0x0 DUP6 DUP2 MSTORE PUSH1 0x20 ADD SWAP1 DUP2 MSTORE PUSH1 0x20 ADD PUSH1 0x0 KECCAK256 PUSH1 0x0 DUP3 ADD MLOAD DUP2 PUSH1 0x0 ADD SWAP1 DUP1 MLOAD SWAP1 PUSH1 0x20 ADD SWAP1 PUSH2 0x16A SWAP3 SWAP2 SWAP1 PUSH2 0x54C JUMP JUMPDEST POP PUSH1 0x20 DUP3 ADD MLOAD DUP2 PUSH1 0x1 ADD SWAP1 DUP1 MLOAD SWAP1 PUSH1 0x20 ADD SWAP1 PUSH2 0x187 SWAP3 SWAP2 SWAP1 PUSH2 0x54C JUMP JUMPDEST POP SWAP1 POP POP POP POP POP JUMP JUMPDEST PUSH1 0x2 PUSH1 0x20 MSTORE DUP2 PUSH1 0x0 MSTORE PUSH1 0x40 PUSH1 0x0 KECCAK256 PUSH1 0x20 MSTORE DUP1 PUSH1 0x0 MSTORE PUSH1 0x40 PUSH1 0x0 KECCAK256 PUSH1 0x0 SWAP2 POP SWAP2 POP POP DUP1 PUSH1 0x0 ADD DUP1 SLOAD PUSH2 0x1C0 SWAP1 PUSH2 0x9E5 JUMP JUMPDEST DUP1 PUSH1 0x1F ADD PUSH1 0x20 DUP1 SWAP2 DIV MUL PUSH1 0x20 ADD PUSH1 0x40 MLOAD SWAP1 DUP2 ADD PUSH1 0x40 MSTORE DUP1 SWAP3 SWAP2 SWAP1 DUP2 DUP2 MSTORE PUSH1 0x20 ADD DUP3 DUP1 SLOAD PUSH2 0x1EC SWAP1 PUSH2 0x9E5 JUMP JUMPDEST DUP1 ISZERO PUSH2 0x239 JUMPI DUP1 PUSH1 0x1F LT PUSH2 0x20E JUMPI PUSH2 0x100 DUP1 DUP4 SLOAD DIV MUL DUP4 MSTORE SWAP2 PUSH1 0x20 ADD SWAP2 PUSH2 0x239 JUMP JUMPDEST DUP3 ADD SWAP2 SWAP1 PUSH1 0x0 MSTORE PUSH1 0x20 PUSH1 0x0 KECCAK256 SWAP1 JUMPDEST DUP2 SLOAD DUP2 MSTORE SWAP1 PUSH1 0x1 ADD SWAP1 PUSH1 0x20 ADD DUP1 DUP4 GT PUSH2 0x21C JUMPI DUP3 SWAP1 SUB PUSH1 0x1F AND DUP3 ADD SWAP2 JUMPDEST POP POP POP POP POP SWAP1 DUP1 PUSH1 0x1 ADD DUP1 SLOAD PUSH2 0x24E SWAP1 PUSH2 0x9E5 JUMP JUMPDEST DUP1 PUSH1 0x1F ADD PUSH1 0x20 DUP1 SWAP2 DIV MUL PUSH1 0x20 ADD PUSH1 0x40 MLOAD SWAP1 DUP2 ADD PUSH1 0x40 MSTORE DUP1 SWAP3 SWAP2 SWAP1 DUP2 DUP2 MSTORE PUSH1 0x20 ADD DUP3 DUP1 SLOAD PUSH2 0x27A SWAP1 PUSH2 0x9E5 JUMP JUMPDEST DUP1 ISZERO PUSH2 0x2C7 JUMPI DUP1 PUSH1 0x1F LT PUSH2 0x29C JUMPI PUSH2 0x100 DUP1 DUP4 SLOAD DIV MUL DUP4 MSTORE SWAP2 PUSH1 0x20 ADD SWAP2 PUSH2 0x2C7 JUMP JUMPDEST DUP3 ADD SWAP2 SWAP1 PUSH1 0x0 MSTORE PUSH1 0x20 PUSH1 0x0 KECCAK256 SWAP1 JUMPDEST DUP2 SLOAD DUP2 MSTORE SWAP1 PUSH1 0x1 ADD SWAP1 PUSH1 0x20 ADD DUP1 DUP4 GT PUSH2 0x2AA JUMPI DUP3 SWAP1 SUB PUSH1 0x1F AND DUP3 ADD SWAP2 JUMPDEST POP POP POP POP POP SWAP1 POP DUP3 JUMP JUMPDEST PUSH1 0x0 PUSH1 0x20 MSTORE DUP1 PUSH1 0x0 MSTORE PUSH1 0x40 PUSH1 0x0 KECCAK256 PUSH1 0x0 SWAP2 POP SWAP1 POP DUP1 SLOAD PUSH2 0x2F0 SWAP1 PUSH2 0x9E5 JUMP JUMPDEST DUP1 PUSH1 0x1F ADD PUSH1 0x20 DUP1 SWAP2 DIV MUL PUSH1 0x20 ADD PUSH1 0x40 MLOAD SWAP1 DUP2 ADD PUSH1 0x40 MSTORE DUP1 SWAP3 SWAP2 SWAP1 DUP2 DUP2 MSTORE PUSH1 0x20 ADD DUP3 DUP1 SLOAD PUSH2 0x31C SWAP1 PUSH2 0x9E5 JUMP JUMPDEST DUP1 ISZERO PUSH2 0x369 JUMPI DUP1 PUSH1 0x1F LT PUSH2 0x33E JUMPI PUSH2 0x100 DUP1 DUP4 SLOAD DIV MUL DUP4 MSTORE SWAP2 PUSH1 0x20 ADD SWAP2 PUSH2 0x369 JUMP JUMPDEST DUP3 ADD SWAP2 SWAP1 PUSH1 0x0 MSTORE PUSH1 0x20 PUSH1 0x0 KECCAK256 SWAP1 JUMPDEST DUP2 SLOAD DUP2 MSTORE SWAP1 PUSH1 0x1 ADD SWAP1 PUSH1 0x20 ADD DUP1 DUP4 GT PUSH2 0x34C JUMPI DUP3 SWAP1 SUB PUSH1 0x1F AND DUP3 ADD SWAP2 JUMPDEST POP POP POP POP POP DUP2 JUMP JUMPDEST PUSH1 0x40 MLOAD DUP1 PUSH1 0x40 ADD PUSH1 0x40 MSTORE DUP1 DUP4 DUP2 MSTORE PUSH1 0x20 ADD DUP3 DUP2 MSTORE POP PUSH1 0x2 PUSH1 0x0 CALLER PUSH20 0xFFFFFFFFFFFFFFFFFFFFFFFFFFFFFFFFFFFFFFFF AND PUSH20 0xFFFFFFFFFFFFFFFFFFFFFFFFFFFFFFFFFFFFFFFF AND DUP2 MSTORE PUSH1 0x20 ADD SWAP1 DUP2 MSTORE PUSH1 0x20 ADD PUSH1 0x0 KECCAK256 PUSH1 0x0 DUP6 DUP2 MSTORE PUSH1 0x20 ADD SWAP1 DUP2 MSTORE PUSH1 0x20 ADD PUSH1 0x0 KECCAK256 PUSH1 0x0 DUP3 ADD MLOAD DUP2 PUSH1 0x0 ADD SWAP1 DUP1 MLOAD SWAP1 PUSH1 0x20 ADD SWAP1 PUSH2 0x3F2 SWAP3 SWAP2 SWAP1 PUSH2 0x54C JUMP JUMPDEST POP PUSH1 0x20 DUP3 ADD MLOAD DUP2 PUSH1 0x1 ADD SWAP1 DUP1 MLOAD SWAP1 PUSH1 0x20 ADD SWAP1 PUSH2 0x40F SWAP3 SWAP2 SWAP1 PUSH2 0x54C JUMP JUMPDEST POP SWAP1 POP POP POP POP POP JUMP JUMPDEST PUSH1 0x1 PUSH1 0x20 MSTORE DUP1 PUSH1 0x0 MSTORE PUSH1 0x40 PUSH1 0x0 KECCAK256 PUSH1 0x0 SWAP2 POP SWAP1 POP DUP1 PUSH1 0x0 ADD DUP1 SLOAD PUSH2 0x43B SWAP1 PUSH2 0x9E5 JUMP JUMPDEST DUP1 PUSH1 0x1F ADD PUSH1 0x20 DUP1 SWAP2 DIV MUL PUSH1 0x20 ADD PUSH1 0x40 MLOAD SWAP1 DUP2 ADD PUSH1 0x40 MSTORE DUP1 SWAP3 SWAP2 SWAP1 DUP2 DUP2 MSTORE PUSH1 0x20 ADD DUP3 DUP1 SLOAD PUSH2 0x467 SWAP1 PUSH2 0x9E5 JUMP JUMPDEST DUP1 ISZERO PUSH2 0x4B4 JUMPI DUP1 PUSH1 0x1F LT PUSH2 0x489 JUMPI PUSH2 0x100 DUP1 DUP4 SLOAD DIV MUL DUP4 MSTORE SWAP2 PUSH1 0x20 ADD SWAP2 PUSH2 0x4B4 JUMP JUMPDEST DUP3 ADD SWAP2 SWAP1 PUSH1 0x0 MSTORE PUSH1 0x20 PUSH1 0x0 KECCAK256 SWAP1 JUMPDEST DUP2 SLOAD DUP2 MSTORE SWAP1 PUSH1 0x1 ADD SWAP1 PUSH1 0x20 ADD DUP1 DUP4 GT PUSH2 0x497 JUMPI DUP3 SWAP1 SUB PUSH1 0x1F AND DUP3 ADD SWAP2 JUMPDEST POP POP POP POP POP SWAP1 DUP1 PUSH1 0x1 ADD DUP1 SLOAD PUSH2 0x4C9 SWAP1 PUSH2 0x9E5 JUMP JUMPDEST DUP1 PUSH1 0x1F ADD PUSH1 0x20 DUP1 SWAP2 DIV MUL PUSH1 0x20 ADD PUSH1 0x40 MLOAD SWAP1 DUP2 ADD PUSH1 0x40 MSTORE DUP1 SWAP3 SWAP2 SWAP1 DUP2 DUP2 MSTORE PUSH1 0x20 ADD DUP3 DUP1 SLOAD PUSH2 0x4F5 SWAP1 PUSH2 0x9E5 JUMP JUMPDEST DUP1 ISZERO PUSH2 0x542 JUMPI DUP1 PUSH1 0x1F LT PUSH2 0x517 JUMPI PUSH2 0x100 DUP1 DUP4 SLOAD DIV MUL DUP4 MSTORE SWAP2 PUSH1 0x20 ADD SWAP2 PUSH2 0x542 JUMP JUMPDEST DUP3 ADD SWAP2 SWAP1 PUSH1 0x0 MSTORE PUSH1 0x20 PUSH1 0x0 KECCAK256 SWAP1 JUMPDEST DUP2 SLOAD DUP2 MSTORE SWAP1 PUSH1 0x1 ADD SWAP1 PUSH1 0x20 ADD DUP1 DUP4 GT PUSH2 0x525 JUMPI DUP3 SWAP1 SUB PUSH1 0x1F AND DUP3 ADD SWAP2 JUMPDEST POP POP POP POP POP SWAP1 POP DUP3 JUMP JUMPDEST DUP3 DUP1 SLOAD PUSH2 0x558 SWAP1 PUSH2 0x9E5 JUMP JUMPDEST SWAP1 PUSH1 0x0 MSTORE PUSH1 0x20 PUSH1 0x0 KECCAK256 SWAP1 PUSH1 0x1F ADD PUSH1 0x20 SWAP1 DIV DUP2 ADD SWAP3 DUP3 PUSH2 0x57A JUMPI PUSH1 0x0 DUP6 SSTORE PUSH2 0x5C1 JUMP JUMPDEST DUP3 PUSH1 0x1F LT PUSH2 0x593 JUMPI DUP1 MLOAD PUSH1 0xFF NOT AND DUP4 DUP1 ADD OR DUP6 SSTORE PUSH2 0x5C1 JUMP JUMPDEST DUP3 DUP1 ADD PUSH1 0x1 ADD DUP6 SSTORE DUP3 ISZERO PUSH2 0x5C1 JUMPI SWAP2 DUP3 ADD JUMPDEST DUP3 DUP2 GT ISZERO PUSH2 0x5C0 JUMPI DUP3 MLOAD DUP3 SSTORE SWAP2 PUSH1 0x20 ADD SWAP2 SWAP1 PUSH1 0x1 ADD SWAP1 PUSH2 0x5A5 JUMP JUMPDEST JUMPDEST POP SWAP1 POP PUSH2 0x5CE SWAP2 SWAP1 PUSH2 0x5D2 JUMP JUMPDEST POP SWAP1 JUMP JUMPDEST JUMPDEST DUP1 DUP3 GT ISZERO PUSH2 0x5EB JUMPI PUSH1 0x0 DUP2 PUSH1 0x0 SWAP1 SSTORE POP PUSH1 0x1 ADD PUSH2 0x5D3 JUMP JUMPDEST POP SWAP1 JUMP JUMPDEST PUSH1 0x0 PUSH1 0x40 MLOAD SWAP1 POP SWAP1 JUMP JUMPDEST PUSH1 0x0 DUP1 REVERT JUMPDEST PUSH1 0x0 DUP1 REVERT JUMPDEST PUSH1 0x0 DUP2 SWAP1 POP SWAP2 SWAP1 POP JUMP JUMPDEST PUSH2 0x616 DUP2 PUSH2 0x603 JUMP JUMPDEST DUP2 EQ PUSH2 0x621 JUMPI PUSH1 0x0 DUP1 REVERT JUMPDEST POP JUMP JUMPDEST PUSH1 0x0 DUP2 CALLDATALOAD SWAP1 POP PUSH2 0x633 DUP2 PUSH2 0x60D JUMP JUMPDEST SWAP3 SWAP2 POP POP JUMP JUMPDEST PUSH1 0x0 DUP1 REVERT JUMPDEST PUSH1 0x0 DUP1 REVERT JUMPDEST PUSH1 0x0 PUSH1 0x1F NOT PUSH1 0x1F DUP4 ADD AND SWAP1 POP SWAP2 SWAP1 POP JUMP JUMPDEST PUSH32 0x4E487B7100000000000000000000000000000000000000000000000000000000 PUSH1 0x0 MSTORE PUSH1 0x41 PUSH1 0x4 MSTORE PUSH1 0x24 PUSH1 0x0 REVERT JUMPDEST PUSH2 0x68C DUP3 PUSH2 0x643 JUMP JUMPDEST DUP2 ADD DUP2 DUP2 LT PUSH8 0xFFFFFFFFFFFFFFFF DUP3 GT OR ISZERO PUSH2 0x6AB JUMPI PUSH2 0x6AA PUSH2 0x654 JUMP JUMPDEST JUMPDEST DUP1 PUSH1 0x40 MSTORE POP POP POP JUMP JUMPDEST PUSH1 0x0 PUSH2 0x6BE PUSH2 0x5EF JUMP JUMPDEST SWAP1 POP PUSH2 0x6CA DUP3 DUP3 PUSH2 0x683 JUMP JUMPDEST SWAP2 SWAP1 POP JUMP JUMPDEST PUSH1 0x0 PUSH8 0xFFFFFFFFFFFFFFFF DUP3 GT ISZERO PUSH2 0x6EA JUMPI PUSH2 0x6E9 PUSH2 0x654 JUMP JUMPDEST JUMPDEST PUSH2 0x6F3 DUP3 PUSH2 0x643 JUMP JUMPDEST SWAP1 POP PUSH1 0x20 DUP2 ADD SWAP1 POP SWAP2 SWAP1 POP JUMP JUMPDEST DUP3 DUP2 DUP4 CALLDATACOPY PUSH1 0x0 DUP4 DUP4 ADD MSTORE POP POP POP JUMP JUMPDEST PUSH1 0x0 PUSH2 0x722 PUSH2 0x71D DUP5 PUSH2 0x6CF JUMP JUMPDEST PUSH2 0x6B4 JUMP JUMPDEST SWAP1 POP DUP3 DUP2 MSTORE PUSH1 0x20 DUP2 ADD DUP5 DUP5 DUP5 ADD GT ISZERO PUSH2 0x73E JUMPI PUSH2 0x73D PUSH2 0x63E JUMP JUMPDEST JUMPDEST PUSH2 0x749 DUP5 DUP3 DUP6 PUSH2 0x700 JUMP JUMPDEST POP SWAP4 SWAP3 POP POP POP JUMP JUMPDEST PUSH1 0x0 DUP3 PUSH1 0x1F DUP4 ADD SLT PUSH2 0x766 JUMPI PUSH2 0x765 PUSH2 0x639 JUMP JUMPDEST JUMPDEST DUP2 CALLDATALOAD PUSH2 0x776 DUP5 DUP3 PUSH1 0x20 DUP7 ADD PUSH2 0x70F JUMP JUMPDEST SWAP2 POP POP SWAP3 SWAP2 POP POP JUMP JUMPDEST PUSH1 0x0 DUP1 PUSH1 0x0 PUSH1 0x60 DUP5 DUP7 SUB SLT ISZERO PUSH2 0x798 JUMPI PUSH2 0x797 PUSH2 0x5F9 JUMP JUMPDEST JUMPDEST PUSH1 0x0 PUSH2 0x7A6 DUP7 DUP3 DUP8 ADD PUSH2 0x624 JUMP JUMPDEST SWAP4 POP POP PUSH1 0x20 DUP5 ADD CALLDATALOAD PUSH8 0xFFFFFFFFFFFFFFFF DUP2 GT ISZERO PUSH2 0x7C7 JUMPI PUSH2 0x7C6 PUSH2 0x5FE JUMP JUMPDEST JUMPDEST PUSH2 0x7D3 DUP7 DUP3 DUP8 ADD PUSH2 0x751 JUMP JUMPDEST SWAP3 POP POP PUSH1 0x40 DUP5 ADD CALLDATALOAD PUSH8 0xFFFFFFFFFFFFFFFF DUP2 GT ISZERO PUSH2 0x7F4 JUMPI PUSH2 0x7F3 PUSH2 0x5FE JUMP JUMPDEST JUMPDEST PUSH2 0x800 DUP7 DUP3 DUP8 ADD PUSH2 0x751 JUMP JUMPDEST SWAP2 POP POP SWAP3 POP SWAP3 POP SWAP3 JUMP JUMPDEST PUSH1 0x0 PUSH20 0xFFFFFFFFFFFFFFFFFFFFFFFFFFFFFFFFFFFFFFFF DUP3 AND SWAP1 POP SWAP2 SWAP1 POP JUMP JUMPDEST PUSH1 0x0 PUSH2 0x835 DUP3 PUSH2 0x80A JUMP JUMPDEST SWAP1 POP SWAP2 SWAP1 POP JUMP JUMPDEST PUSH2 0x845 DUP2 PUSH2 0x82A JUMP JUMPDEST DUP2 EQ PUSH2 0x850 JUMPI PUSH1 0x0 DUP1 REVERT JUMPDEST POP JUMP JUMPDEST PUSH1 0x0 DUP2 CALLDATALOAD SWAP1 POP PUSH2 0x862 DUP2 PUSH2 0x83C JUMP JUMPDEST SWAP3 SWAP2 POP POP JUMP JUMPDEST PUSH1 0x0 DUP1 PUSH1 0x40 DUP4 DUP6 SUB SLT ISZERO PUSH2 0x87F JUMPI PUSH2 0x87E PUSH2 0x5F9 JUMP JUMPDEST JUMPDEST PUSH1 0x0 PUSH2 0x88D DUP6 DUP3 DUP7 ADD PUSH2 0x853 JUMP JUMPDEST SWAP3 POP POP PUSH1 0x20 PUSH2 0x89E DUP6 DUP3 DUP7 ADD PUSH2 0x624 JUMP JUMPDEST SWAP2 POP POP SWAP3 POP SWAP3 SWAP1 POP JUMP JUMPDEST PUSH1 0x0 DUP2 MLOAD SWAP1 POP SWAP2 SWAP1 POP JUMP JUMPDEST PUSH1 0x0 DUP3 DUP3 MSTORE PUSH1 0x20 DUP3 ADD SWAP1 POP SWAP3 SWAP2 POP POP JUMP JUMPDEST PUSH1 0x0 JUMPDEST DUP4 DUP2 LT ISZERO PUSH2 0x8E2 JUMPI DUP1 DUP3 ADD MLOAD DUP2 DUP5 ADD MSTORE PUSH1 0x20 DUP2 ADD SWAP1 POP PUSH2 0x8C7 JUMP JUMPDEST DUP4 DUP2 GT ISZERO PUSH2 0x8F1 JUMPI PUSH1 0x0 DUP5 DUP5 ADD MSTORE JUMPDEST POP POP POP POP JUMP JUMPDEST PUSH1 0x0 PUSH2 0x902 DUP3 PUSH2 0x8A8 JUMP JUMPDEST PUSH2 0x90C DUP2 DUP6 PUSH2 0x8B3 JUMP JUMPDEST SWAP4 POP PUSH2 0x91C DUP2 DUP6 PUSH1 0x20 DUP7 ADD PUSH2 0x8C4 JUMP JUMPDEST PUSH2 0x925 DUP2 PUSH2 0x643 JUMP JUMPDEST DUP5 ADD SWAP2 POP POP SWAP3 SWAP2 POP POP JUMP JUMPDEST PUSH1 0x0 PUSH1 0x40 DUP3 ADD SWAP1 POP DUP2 DUP2 SUB PUSH1 0x0 DUP4 ADD MSTORE PUSH2 0x94A DUP2 DUP6 PUSH2 0x8F7 JUMP JUMPDEST SWAP1 POP DUP2 DUP2 SUB PUSH1 0x20 DUP4 ADD MSTORE PUSH2 0x95E DUP2 DUP5 PUSH2 0x8F7 JUMP JUMPDEST SWAP1 POP SWAP4 SWAP3 POP POP POP JUMP JUMPDEST PUSH1 0x0 PUSH1 0x20 DUP3 DUP5 SUB SLT ISZERO PUSH2 0x97D JUMPI PUSH2 0x97C PUSH2 0x5F9 JUMP JUMPDEST JUMPDEST PUSH1 0x0 PUSH2 0x98B DUP5 DUP3 DUP6 ADD PUSH2 0x624 JUMP JUMPDEST SWAP2 POP POP SWAP3 SWAP2 POP POP JUMP JUMPDEST PUSH1 0x0 PUSH1 0x20 DUP3 ADD SWAP1 POP DUP2 DUP2 SUB PUSH1 0x0 DUP4 ADD MSTORE PUSH2 0x9AE DUP2 DUP5 PUSH2 0x8F7 JUMP JUMPDEST SWAP1 POP SWAP3 SWAP2 POP POP JUMP JUMPDEST PUSH32 0x4E487B7100000000000000000000000000000000000000000000000000000000 PUSH1 0x0 MSTORE PUSH1 0x22 PUSH1 0x4 MSTORE PUSH1 0x24 PUSH1 0x0 REVERT JUMPDEST PUSH1 0x0 PUSH1 0x2 DUP3 DIV SWAP1 POP PUSH1 0x1 DUP3 AND DUP1 PUSH2 0x9FD JUMPI PUSH1 0x7F DUP3 AND SWAP2 POP JUMPDEST PUSH1 0x20 DUP3 LT DUP2 EQ ISZERO PUSH2 0xA11 JUMPI PUSH2 0xA10 PUSH2 0x9B6 JUMP JUMPDEST JUMPDEST POP SWAP2 SWAP1 POP JUMP INVALID LOG2 PUSH5 0x6970667358 0x22 SLT KECCAK256 0x1F TIMESTAMP DUP13 0x2B SWAP8 DUP10 DUP11 0xE8 CALLDATALOAD PUSH2 0x23CF PUSH12 0x12365D61FFA9C9CFBFEF5372 0x2B SWAP3 DELEGATECALL SUB 0xBE MOD DUP11 PUSH5 0x736F6C6343 STOP ADDMOD 0xC STOP CALLER "
				},
				"gasEstimates": {
					"creation": {
						"codeDepositCost": "527400",
						"executionCost": "infinite",
						"totalCost": "infinite"
					},
					"external": {
						"addBook(uint256,string,string)": "infinite",
						"addMyBook(uint256,string,string)": "infinite",
						"books(uint256)": "infinite",
						"myBooks(address,uint256)": "infinite",
						"names(uint256)": "infinite"
					}
				},
				"methodIdentifiers": {
					"addBook(uint256,string,string)": "028414f2",
					"addMyBook(uint256,string,string)": "493ec707",
					"books(uint256)": "68744046",
					"myBooks(address,uint256)": "27d3553f",
					"names(uint256)": "4622ab03"
				}
			},
			"storageLayout": {
				"storage": [
					{
						"astId": 5,
						"contract": "mapping.sol:Mapping",
						"label": "names",
						"offset": 0,
						"slot": "0",
						"type": "t_mapping(t_uint256,t_string_storage)"
					},
					{
						"astId": 10,
						"contract": "mapping.sol:Mapping",
						"label": "books",
						"offset": 0,
						"slot": "1",
						"type": "t_mapping(t_uint256,t_struct(Book)22_storage)"
					},
					{
						"astId": 17,
						"contract": "mapping.sol:Mapping",
						"label": "myBooks",
						"offset": 0,
						"slot": "2",
						"type": "t_mapping(t_address,t_mapping(t_uint256,t_struct(Book)22_storage))"
					}
				],
				"types": {
					"t_address": {
						"encoding": "inplace",
						"label": "address",
						"numberOfBytes": "20"
					},
					"t_mapping(t_address,t_mapping(t_uint256,t_struct(Book)22_storage))": {
						"encoding": "mapping",
						"key": "t_address",
						"label": "mapping(address => mapping(uint256 => struct Mapping.Book))",
						"numberOfBytes": "32",
						"value": "t_mapping(t_uint256,t_struct(Book)22_storage)"
					},
					"t_mapping(t_uint256,t_string_storage)": {
						"encoding": "mapping",
						"key": "t_uint256",
						"label": "mapping(uint256 => string)",
						"numberOfBytes": "32",
						"value": "t_string_storage"
					},
					"t_mapping(t_uint256,t_struct(Book)22_storage)": {
						"encoding": "mapping",
						"key": "t_uint256",
						"label": "mapping(uint256 => struct Mapping.Book)",
						"numberOfBytes": "32",
						"value": "t_struct(Book)22_storage"
					},
					"t_string_storage": {
						"encoding": "bytes",
						"label": "string",
						"numberOfBytes": "32"
					},
					"t_struct(Book)22_storage": {
						"encoding": "inplace",
						"label": "struct Mapping.Book",
						"members": [
							{
								"astId": 19,
								"contract": "mapping.sol:Mapping",
								"label": "title",
								"offset": 0,
								"slot": "0",
								"type": "t_string_storage"
							},
							{
								"astId": 21,
								"contract": "mapping.sol:Mapping",
								"label": "author",
								"offset": 0,
								"slot": "1",
								"type": "t_string_storage"
							}
						],
						"numberOfBytes": "64"
					},
					"t_uint256": {
						"encoding": "inplace",
						"label": "uint256",
						"numberOfBytes": "32"
					}
				}
			},
			"userdoc": {
				"kind": "user",
				"methods": {},
				"version": 1
			}
		}
	}
}